:020000040800F2
:10000000704A0020B90300085169000853690008CC
:10001000576900085B6900085F690008000000007C
:100020000000000000000000000000004501000882
:1000300063690008000000008901000867250008C6
:10004000D3030008D3030008D3030008D303000838
:10005000D3030008D3030008D3030008D303000828
:10006000D3030008D3030008D3030008D303000818
:10007000D3030008D3030008D3030008D303000808
:10008000D3030008D3030008D3030008D3030008F8
:10009000D3030008D3030008D3030008D3030008E8
:1000A000D3030008D3030008D3030008D3030008D8
:1000B00065690008ED6900081D6A0008D30300089F
:1000C000D3030008D3030008D3030008D3030008B8
:1000D000D3030008716C0008D3030008316D0008D9
:1000E000D3030008D3030008D3030008D303000898
:1000F000D3030008D3030008D3030008D303000888
:10010000D3030008D3030008316A0008D3030008B2
:100110008D6D00084F6E0008D3030008D30300085C
:10012000D3030008D3030008D3030008D303000857
:10013000DFF80CD006F004FF004800479F68000875
:10014000704A0020224B19680868B0E8F00F80F36D
:100150000988BFF36F8F4FF0000080F311884EF0D5
:100160000D0E70470000000006480068006880F32C
:10017000088862B661B6BFF34F8FBFF36F8F00DFA1
:1001800000BF00BF08ED00E0EFF30980BFF36F8F01
:100190000F4B1A6820E9F00F106008B54FF0BF0050
:1001A00080F31188BFF34F8FBFF36F8F02F05CFEB7
:1001B0004FF0000080F31188BDE808401968086816
:1001C000B0E8F00F80F30988BFF36F8F704700BF6E
:1001D00044000020EFF30580704700000CB50020BC
:1001E000019000906B48006840F4803069490860D5
:1001F00000BF6848006800F4003000900198401C7F
:100200000190009818B90198B0F5A06FF1D161483C
:10021000006810F4003F02D00120009001E00020AF
:1002200000900098012842D15B48006840F010001F
:10023000594908600846006820F003000860084635
:10024000006840F002000860524840685149486028
:100250000846406848600846406840F4806048604E
:100260000846406820F47C1048600846406840F426
:10027000E81048600846006840F08070086000BFE1
:100280004448006810F0007FFAD04248406820F0EF
:100290000300404948600846406840F0020048605A
:1002A00000BF3C48406800F00C000828F9D10CBDA4
:1002B00010B5FFF793FF10BD10B53648006840F049
:1002C0000100344908600846406834490840314913
:1002D000486008460068324908402E4908600846D0
:1002E000006820F4802008600846406820F4FE0082
:1002F00048604FF41F008860FFF7DAFF4FF000609E
:100300002849086010BD10B5002100200022214BB3
:100310005B6803F00C0121B1042906D0082928D11B
:1003200007E0214B214C236027E01F4B1F4C23602B
:1003300023E0184B5B6803F47010164B5B6803F402
:100340008032022303EB904022B9194B4343174CF0
:1003500023600DE00F4B5B6813F4003F04D0144B97
:100360004343124C236003E00F4B43430F4C236085
:1003700003E00D4B0D4C236000BF00BF054B5B68D5
:10038000C3F303130B4CE15C084B1B68CB40074CD9
:10039000236010BD00100240002002400000FFF862
:1003A000FFFFF6FE08ED00E000127A0000000020DA
:1003B00000093D0004000020064880470648004729
:1003C000FEE7FEE7FEE7FEE7FEE7FEE7FEE7FEE705
:1003D000FEE7FEE7B9020008310100083149014398
:1003E000314A1160704770B5002100230F22C47894
:1003F0000CB32D4C246804F4E064C4F5E064210AD5
:10040000C1F10403CA40447804FA03F1847814402B
:1004100021430901254C0678A155047804F01F05F5
:100420000124AC4005786D114FF0E02606EB850500
:10043000C5F8004109E0047804F01F050124AC4030
:100440001B4D0678761145F8264070BD194A0A40C2
:100450000243154B1B1F1A60704739B1124A121D17
:1004600012680243104B1B1D1A6006E00E4A121D53
:10047000126882430C4B1B1D1A607047042808D178
:100480004FF0E021096941F004014FF0E0221161D1
:1004900007E04FF0E021096921F004014FF0E0226C
:1004A000116170470000FA050CED00E000E400E087
:1004B00080E100E080FFFF1F10B50446FA48844247
:1004C00008D10121401500F097FE0021601500F0D1
:1004D00093FE17E0F548844208D10121001500F091
:1004E0008BFE0021201500F087FE0BE0F0488442CF
:1004F00008D10121C80300F07FFE00214FF4004025
:1005000000F07AFE10BD30B502460020002350688E
:10051000E84C20400D790C6844EA052420435060E3
:100520009068E54C2040D1E902542C434D7944EACF
:10053000450420439060D06A20F470000C7C641E57
:10054000E4B2234340EA0350D06230BD0021016091
:10055000017141718160C16001210174704721B155
:10056000826842F00102826003E0826822F00102A8
:100570008260704721B1826842F48072826003E039
:10058000826822F480728260704710B50023CBB27B
:100590001AB144681C43446002E044689C434460D0
:1005A00010BD816841F0080181607047014600205C
:1005B0008A6812F0080F01D0012000E00020704787
:1005C000816841F0040181607047014600208A681B
:1005D00012F0040F01D0012000E00020704721B18B
:1005E000826842F4A002826003E0826822F4A002E2
:1005F00082607047014600208A6812F4800F01D0A3
:10060000012000E00020704710B50A4600210023B9
:10061000416821F46041531E41EA4331416010BDFD
:1006200021B1426842F40062426003E0426822F471
:10063000006242607047F0B504460D46002000217C
:10064000092D11DDE068A5F10A0606EB460707262D
:1006500006FA07F18843A5F10A0606EB460603FAF7
:1006600006F10843E0600CE0206905EB450707262A
:1006700006FA07F1884305EB450603FA06F108433D
:100680002061072A0FDA606B561E06EB86071F26CD
:1006900006FA07F18843561E06EB860605FA06F1B0
:1006A0000843606322E00D2A0FDA206BD61F06EBA9
:1006B00086071F2606FA07F18843D61F06EB860633
:1006C00005FA06F10843206310E0E06AA2F10D0686
:1006D00006EB86071F2606FA07F18843A2F10D06EE
:1006E00006EB860605FA06F10843E062F0BD21B18B
:1006F000826842F48012826003E0826822F48012F1
:10070000826070470146C86C80B2704766484C30C2
:100710000068704721B1426842F48062426003E0A1
:10072000426822F480624260704721B1426842F41C
:100730008052426003E0426822F480524260704777
:100740000A460021816821F4E0411143816070472D
:1007500021B1826842F40042826003E0826822F4A0
:1007600000428260704721B1826842F402128260C6
:1007700003E0826822F40212826070470146002082
:100780008A6812F4001F01D0012000E000207047A9
:10079000F0B504461546002000220026092911DD87
:1007A000E068A1F10A0707EB470C072707FA0CF2EC
:1007B0009043A1F10A0707EB470703FA07F210433A
:1007C000E0600CE0206901EB410C072707FA0CF20E
:1007D000904301EB410703FA07F210432061A06B3D
:1007E000C0F30156EF1C06F1010CA7EB0C0707EB59
:1007F000870C1F2707FA0CF29043EF1C06F1010C3F
:10080000A7EB0C0707EB870701FA07F21043A06379
:10081000F0BD10B50A4600210023816B21F4401180
:10082000531E41EA0351816310BD08B500230093B4
:100830000090009B0B440093009B1A6008BD08B514
:10084000024600200090009201F12800009B18440D
:1008500000900098006880B208BD0A4600214168F7
:10086000164B1940114341607047416282627047E4
:100870000A460021416821F01F0111434160704781
:1008800040B109490831096841F40001064A0832BB
:10089000116007E004490831096821F40001024AA7
:1008A0000832116070470000002401400028014018
:1008B000003C0140FFFEF0FFFDF7F1FFFFFD3FFFB1
:1008C0000246002013680B4201D0012000E0002006
:1008D0007047CA430260704770B50246002000238B
:1008E00000240B125568CEB205EA060415681D42B5
:1008F00002D00CB1012000E0002070BD00220A12DD
:10090000D34303607047000001684FF6FE72114048
:1009100001600021016041608160C1608C498842B2
:1009200008D18B490839496841F00F01884A083AD3
:1009300051608AE086491431884208D184490839D7
:10094000496841F0F001824A083A51607DE08049EF
:100950002831884208D17E490839496841F47061DC
:100960007B4A083A516070E079493C31884208D1AD
:1009700077490839496841F47041754A083A51602D
:1009800063E073495031884208D171490839496898
:1009900041F470216E4A083A516056E06C49643166
:1009A000884208D16A490839496841F47001684AA7
:1009B000083A516049E066497831884208D1644973
:1009C0000839496841F07061614A083A51603CE079
:1009D0006049884206D1011F096841F00F01021FDA
:1009E000116032E05B491431884208D15949091F2E
:1009F000096841F0F001574A121F116025E055497E
:100A00002831884208D15349091F096841F47061AF
:100A1000504A121F116018E04E493C31884208D1FB
:100A20004C49091F096841F470414A4A121F11607C
:100A30000BE048495031884207D14649091F0968EF
:100A400041F47021434A121F1160704710B5002213
:100A5000026847F6F0739A430C6A8B6823430C696B
:100A600023434C6923438C692343CC6923434C6A59
:100A700023438C6A23431A430260CB6843600B68AC
:100A800083604B68C36010BD0021016041608160DC
:100A9000C160016141618161C16101624162816244
:100AA000704721B1026842F00102026004E002686E
:100AB0004FF6FE731A40026070471AB103680B4389
:100AC000036002E003688B43036070474160704736
:100AD0000146486880B2704701460020002211F0AC
:100AE000805F03D01B4B083B1A6802E0184B083BA1
:100AF0001A680A4201D0012000E00020704710F07F
:100B0000805F03D01349091F086002E010490839CB
:100B10004860704701460020002211F0805F03D03A
:100B20000C4B083B1A6802E0094B083B1A680A4262
:100B300001D0012000E00020704710F0805F03D05A
:100B40000449091F086002E00149083948607047FC
:100B5000080002400804024010B50446CA48844216
:100B600008D10121042000F047FB0021042000F0FF
:100B700043FB46E0C548844208D10121082000F02B
:100B80003BFB0021082000F037FB3AE0C0488442DC
:100B900008D10121102000F02FFB0021102000F0CF
:100BA0002BFB2EE0BB48844208D10121202000F01D
:100BB00023FB0021202000F01FFB22E0B6488442E6
:100BC00008D10121402000F017FB0021402000F057
:100BD00013FB16E0B148844208D10121802000F0C7
:100BE0000BFB0021802000F007FB0AE0AC488442A8
:100BF00007D10121801500F0FFFA0021A01500F0B7
:100C0000FBFA10BD10B50121084600F0F5FA0021ED
:100C1000012000F0F1FA10BD2DE9F0410246002557
:100C20000026002000230024002791F803C00CF0C8
:100C30000F0591F803C01CF0100F03D091F802C00B
:100C40004CEA050591F800C0BCF1000F31D01468E2
:100C500000202BE04FF0010C0CFA00F3B1F800C0BB
:100C60000CEA03069E4220D183004FF00F0C0CFAD1
:100C700003F7BC4305FA03FC4CEA040491F803C0F3
:100C8000BCF1280F06D14FF0010C0CFA00FCC2F8A1
:100C900014C00AE091F803C0BCF1480F05D14FF031
:100CA000010C0CFA00FCC2F810C0401C0828D1D37B
:100CB0001460B1F800C0BCF1FF0F34DD54680020AF
:100CC0002EE000F1080C4FF0010808FA0CF3B1F81F
:100CD00000C00CEA03069E4221D183004FF00F0CA6
:100CE0000CFA03F7BC4305FA03FC4CEA040491F840
:100CF00003C0BCF1280F05D100F1080C08FA0CF86C
:100D0000C2F8148091F803C0BCF1480F07D100F17C
:100D1000080C4FF0010808FA0CF8C2F81080401CCB
:100D20000828CED35460BDE8F0814FF6FF710180F2
:100D3000022181700421C17070470246002093682F
:100D40000B4201D0012000E0002070470146886876
:100D500080B2704702460020D3680B4201D00120C8
:100D600000E0002070470146C86880B2704701610A
:100D70007047416170470AB1016100E0416170470D
:100D8000C16070474FF480320A43826181618261A1
:100D900082698269704702460020424B18684FF60C
:100DA0008073184040EA021008433E4B18607047B9
:100DB0003D49C8617047F0B50A4600230024002170
:100DC000002500F00046B6F1004F02D1354EF16922
:100DD00001E0344E7168C0F3034583B200F440165D
:100DE000B6F5401F08D121F070612E4E766826F0CE
:100DF00070662C4F7E6012E000F48016B6F5801FFE
:100E000006D1032606FA05F4A14341F0706106E01D
:100E1000460D360103FA06F6B14341F0706122B186
:100E2000460D360103FA06F6314300F00046B6F1EE
:100E3000004F02D11B4EF16101E01A4E7160F0BD0E
:100E400030B500228B071C0F0F2303FA04F2154B59
:100E500008338C1053F824309343124C08348D100F
:100E600044F8253023468C1053F824308C07240F87
:100E700000FA04F423430B4C08348D1044F8253059
:100E800030BD0A490860704700080140000C01406D
:100E9000001001400014014000180140001C0140F6
:100EA000002001400000014000002042DC00204200
:100EB0000E49086070470D49486070470B498860CB
:100EC00070474AF6AA200949086070474CF6CC40A2
:100ED00006490860704701460020044AD2680A4269
:100EE00001D0012000E000207047000000300040E9
:100EF000DD48006840F00100DB49086008464068B2
:100F0000DA490840D849486008460068D84908408E
:100F1000D54908600846006820F48020086008462B
:100F2000406820F4FE0048604FF41F00886070475E
:100F3000CD49096821F48031CB4A11601146096816
:100F400021F480211160B0F5803F03D0B0F5802FEF
:100F50000ED106E0C449096841F48031C24A1160EB
:100F600007E0C149096841F4A021BF4A116000E0CF
:100F700000BF00BF704710B50146002200230020CB
:100F80004A11012A02D1B84C236806E0022A02D194
:100F9000B54C236A01E0B44C636A01F01F020124DE
:100FA00094401C4201D0012000E0002010BD38B563
:100FB000002000900024002500BF3120FFF7DBFF58
:100FC00005460098401C00900098B0F5A06F01D035
:100FD000002DF2D03120FFF7CEFF08B1012400E050
:100FE0000024204638BD014600209F4A106820F0AA
:100FF000F80040EAC100106070479E4908607047E1
:1010000002460020984B586820F47C1042EA010305
:101010001843954B586070479649086670470146DB
:101020000020914A506820F0030008435060704748
:101030008D48406800F00C007047014600208A4A45
:10104000506820F0F00008435060704701460020CF
:10105000854A506820F4E0600843506070470146BC
:101060000020814A506820F4605040EAC10050607E
:10107000704729B17C4A527A02437B4B5A7204E092
:10108000794A527A8243784B5A7270477A4908609B
:10109000704701460020744A506820F440400843DD
:1010A000506070470021754A11706F4A82F8201015
:1010B000012802D0042808D103E001216F4A1170F1
:1010C00004E005216D4A117000E000BF00BF7047C9
:1010D0006B49086070476449096A0143624A1162BA
:1010E0007047674944390860704730B500210022D5
:1010F000002400235C4D6D6805F00C0121B104292A
:1011000005D0082923D105E05E4D056022E05D4D44
:1011100005601FE0544D6D6805F47012524D6D6806
:1011200005F48034022505EB92421CB9564D554317
:1011300005600BE04C4D6D6815F4003F03D0524D37
:101140005543056002E04F4D5543056002E04D4DAB
:10115000056000BF00BF444D6D6805F0F00109094E
:101160004A4D6B5C0568DD4045603F4D6D6805F498
:10117000E061090A454D6B5C4568DD4085603A4D8C
:101180006D6805F46051C90A404D6B5C4568DD40EF
:10119000C560354D6D6805F44041890B3C4D6B5C75
:1011A000C568B5FBF3F5056130BD29B12E4A52691A
:1011B00002432D4B5A6104E02B4A526982432A4B69
:1011C0005A61704729B1284A92690243264B9A61B5
:1011D00004E0254A92698243234B9A61704729B102
:1011E000214AD2690243204BDA6104E01E4AD269E7
:1011F00082431D4BDA61704729B11B4AD268024312
:10120000194BDA6004E0184AD2688243164BDA6060
:10121000704729B1144A12690243134B1A6104E062
:10122000114A12698243104B1A61704714494039C0
:10123000086070470F49C86470470B49C871704710
:101240000948406A40F0807007494862704701468B
:101250000020054A92680A4201D0012000E00020E7
:101260007047014988727047001002400000FFF883
:10127000FFFFF6FE00004242D8004242201002402A
:101280008004424200127A0000093D001400002050
:101290002400002010B50446FE48844208D10121F4
:1012A000C014FFF7A9FF0021E014FFF7A5FFC4E079
:1012B000B4F1804F08D101210846FFF7AAFF0021B1
:1012C0000120FFF7A6FFB8E0F348844208D10121CE
:1012D0000220FFF79EFF00210220FFF79AFFACE0FB
:1012E000EE48844208D101210420FFF792FF00213B
:1012F0000420FFF78EFFA0E0E948844208D10121D5
:101300000820FFF786FF00210820FFF782FF94E006
:10131000E448844208D101211020FFF77AFF002120
:101320001020FFF776FF88E0DF48844208D10121D2
:101330002020FFF76EFF00212020FFF76AFF7CE0EE
:10134000DA48844208D101214014FFF755FF0021FB
:101350006014FFF751FF70E0D548844209D10121A4
:10136000C804FFF749FF00214FF40020FFF744FFB6
:1013700063E0D048844209D101210805FFF73CFF12
:1013800000214FF48010FFF737FF56E0CA4884422F
:1013900009D101214805FFF72FFF00214FF400106C
:1013A000FFF72AFF49E0C548844208D101214020C7
:1013B000FFF72FFF00214020FFF72BFF3DE0C04843
:1013C000844208D101218020FFF723FF00218020E3
:1013D000FFF71FFF31E0BB48844208D1012180158F
:1013E000FFF717FF0021A015FFF713FF25E0B64810
:1013F000844209D101210804FFF7FEFE00214FF4C9
:101400008030FFF7F9FE18E0B048844209D101218D
:101410004804FFF7F1FE00214FF40030FFF7ECFE27
:101420000BE0AB48844208D101218804FFF7E4FEB9
:1014300000214FF48020FFF7DFFE10BD002202885C
:10144000944B98420ED0994B98420BD0B0F1804FFC
:1014500008D0914B984205D0904B984202D0904BC7
:10146000984204D14FF68F731A404B881A438D4B24
:10147000984207D08C4B984204D04FF6FF431A4055
:10148000CB881A4302808B8883850B880385814B28
:1014900098420BD0854B984208D08B4B984205D090
:1014A0008A4B984202D08A4B984201D10B7A03862C
:1014B00001238382704770B5002400220023058C2D
:1014C0004FF6FE7635400584028C8388048B4FF6F8
:1014D0008F752C40B51E2C400D882C43751E2A405C
:1014E0000D892A434D882A436A4DA8420BD06F4D7F
:1014F000A84208D0744DA84205D0744DA84202D02D
:10150000734DA84213D14FF6F7752A404D892A43EF
:101510004FF6FB752A408D882A434FF6FF652B4016
:101520004FF6FF552B408D892B43CD892B4383806C
:101530000483CD888586028470BD70B500240022A6
:101540000023058C4FF6EF7635400584028C8388A6
:10155000048B48F6FF752C404FF6FF452C400D8854
:101560004FF6FF7606EA05252C434FF6DF752A4035
:101570000D8906EA05152A434D8806EA05152A4312
:10158000444DA84202D0494DA8421DD14FF67F7567
:101590002A404D894FF6FF7606EA05152A434FF695
:1015A000BF752A408D8806EA05152A434FF6FF3598
:1015B0002B404FF2FF752B408D8906EA85052B43A2
:1015C000CD8906EA85052B4383800483CD88058772
:1015D000028470BD70B5002400220023058C4FF6F4
:1015E000FF6635400584028C8388848B4FF68F75A7
:1015F0002C404FF6FC752C400D882C434FF6FF55C0
:101600002A400D894FF6FF7606EA05252A434D88C4
:1016100006EA05252A431F4DA84202D0234DA842C1
:101620001DD14FF2FF752A404D894FF6FF7606EA2D
:1016300005252A434FF6FF352A408D8806EA052501
:101640002A434EF6FF752B404DF6FF752B408D89D2
:1016500006EA05152B43CD8906EA05152B43838041
:101660008483CD888587028470BD70B500220023F5
:101670000024058C4EF6FF7635400584038C848863
:10168000828B48F6FF752A404FF6FF452A400D88A9
:1016900020E00000002C0140000400400008004051
:1016A000000C0040001000400014004000340140D5
:1016B000004C01400050014000540140001800401F
:1016C000001C004000200040004001400044014058
:1016D000004801404FF6FF7606EA05252A434DF6FD
:1016E000FF752B400D8906EA05352B434D8806EA28
:1016F00005352B43FA4DA84202D0FA4DA84208D135
:101700004BF6FF752C408D894FF6FF7606EA85155E
:101710002C4384808283CD88A0F84050038470BD20
:10172000828B4FF2FF331A408283828B4FF6FF7316
:1017300003EA01231A4382837047F0B50C4615462D
:10174000002200210026078C4EF6FF7C07EA0C07DA
:101750000784828B018C4FF6FF7707EA043640F648
:10176000FF473A404FF6FF7707EA05273A434FF61F
:10177000FF7707EA03373A43D94FB8420ED0D94F23
:10178000B8420BD0B0F1804F08D0D74FB84205D047
:10179000D64FB84202D0D64FB84206D14DF6FF77A9
:1017A000394046F48057394305E047F6FF57394042
:1017B00044F48057394382830184F0BD828B4FF615
:1017C000F3731A408283828B0A4382837047F0B599
:1017D0000C461546002200210026078C4FF6FF6CB0
:1017E00007EA0C070784828B018C4FF6FF7707EA24
:1017F00004264FF60C773A404FF6FF7707EA0317B7
:101800002F433A43B64FB8420ED0B64FB8420BD032
:10181000B0F1804F08D0B44FB84205D0B34FB842B2
:1018200002D0B34FB84206D14FF6FF57394046F4C5
:101830008077394305E04FF2FF57394044F4807711
:10184000394382830184F0BD028B4FF2FF331A408B
:101850000283028B4FF6FF7303EA01231A430283CC
:101860007047F0B50C461546002200210026078C73
:101870004FF6EF7C07EA0C070784028B018C4FF6CA
:10188000FF7707EA041640F6FF473A404FF6FF7726
:1018900007EA03373A434FF6FF7707EA05273A434B
:1018A0008F4FB8420ED08F4FB8420BD0B0F1804F5F
:1018B00008D08D4FB84205D08C4FB84202D08C4F23
:1018C000B84206D14FF6DF77394046F0100739436A
:1018D00005E04FF65F77394044F010073943028343
:1018E0000184F0BD028B4FF6F3731A400283028B22
:1018F0000A4302837047F0B50C46154600220021CA
:10190000068C4FF6FE773E400684028B018C4FF624
:101910000C7632407E1C06EA03162E433243704E8C
:10192000B0420ED06F4EB0420BD0B0F1804F08D015
:101930006D4EB04205D06D4EB04202D06C4EB042FA
:1019400006D14FF6FD76314044F00106314305E003
:101950004FF6F576314044F00106314302830184AD
:10196000F0BD70B505460C465D4885420ED05D4819
:1019700085420BD0B5F1804F08D05B48854205D039
:101980005A48854202D05A48854200D100E000BF43
:10199000208850B92389A28861882846FFF7ABFFC9
:1019A000E1882846FFF79EFF25E0208804280AD119
:1019B0002389A28861882846FFF753FFE1882846DB
:1019C000FFF742FF17E0208808280AD12389A28860
:1019D00061882846FFF7FBFEE1882846FFF7EEFE08
:1019E00009E02389A28861882846FFF7A6FEE188DE
:1019F0002846FFF795FE70BD2DE9F04105460C46DF
:101A000000260127608808B9022600E00026A08889
:101A1000012801D1022700E001272088A0B92389ED
:101A2000A28861882846FFF766FFE1882846FFF70D
:101A300059FF23893A4631462846FFF712FFE188CD
:101A40002846FFF701FF13E02389A2886188284612
:101A5000FFF707FFE1882846FFF7F6FE23893A469D
:101A600031462846FFF747FFE1882846FFF73AFF4F
:101A7000BDE8F0810A884B881A438B881A43CB88CB
:101A80001A430B891A434B891A438B891A43A0F8CE
:101A9000442070474FF6FF71818000210180C18092
:101AA0004180017270470021018041808180C180A6
:101AB000018141818181C181704700210180418084
:101AC000012181800021C1800181704700210180B6
:101AD00041808180C1800181418181817047000006
:101AE000002C014000340140000400400008004088
:101AF000000C004021B1028842F00102028004E0A3
:101B000002884FF6FE731A400280704731B1B0F878
:101B1000442042F40042A0F8442005E0B0F84420FC
:101B2000C2F30E02A0F8442070471AB183890B4318
:101B3000838102E083898B43838170478182704770
:101B400041EA0203A0F8483070471AB183890B4379
:101B5000838102E083898B438381704701894FF63B
:101B6000F8721140018170470A46002101894FF641
:101B70008F73194011430181704730B504460D46FB
:101B800029462046FFF7F0FF208940F0070020811A
:101B900030BD2DE9F04104460D4616461F46602D26
:101BA00006D13B46012231462046FFF75AFE05E0AA
:101BB0003B46012231462046FFF79DFE294620463E
:101BC000FFF7D2FF208940F007002081BDE8F081B7
:101BD00030B50C4600210189C9B24FF6FF7505EA00
:101BE0000325154325432943018130BD2DE9F041EB
:101BF00005460E4617469846002443463A46314667
:101C00002846FFF7E5FF2C894FF6F870044044F0B2
:101C100007044FF68F70044044F070042C81BDE837
:101C2000F081F0B504460D4616461F463B46324647
:101C300029462046FFF7CCFF208940F480402081D0
:101C4000F0BD0185828270470A46002101884FF667
:101C50008F731940114301807047F0B50C4615464B
:101C60001E460021002200230189028B038C4FF6BF
:101C7000F877394021434FF6FC473A4040F20117CC
:101C80003A434FF6DD773B404FF6FF7707EA0617FA
:101C90002F433B43018102830384F0BD0A460021A8
:101CA000018B4FF68F7319401143018370470A4629
:101CB0000021018B48F6FF7319404FF6FF7303EACA
:101CC00002231943018370470A460021818B4FF696
:101CD0008F7319401143818370470A460021818B1D
:101CE00048F6FF7319404FF6FF7303EA02231943C6
:101CF0008183704721B1028842F08002028004E0B3
:101D000002884FF67F731A400280704721B18288A3
:101D100042F00402828004E082884FF6FB731A408E
:101D20008280704721B1828842F00802828004E0FC
:101D300082884FF6F7731A408280704721B18288FB
:101D400042F00102828004E082884FF6FE731A405E
:101D5000828070470A460021018B4FF6F7731940C5
:101D60001143018370470A460021018B4FF2FF7334
:101D700019404FF6FF7303EA0223194301837047AA
:101D80000A460021818B4FF6F77319401143818376
:101D900070470A460021818B4FF2FF7319404FF6BE
:101DA000FF7303EA02231943818370470A46002127
:101DB000018B4FF6FB7319401143018370470A46AC
:101DC0000021018B4FF6FF3319404FF6FF7303EAF2
:101DD00002231943018370470A460021818B4FF685
:101DE000FB7319401143818370470A460021818BA0
:101DF0004FF6FF3319404FF6FF7303EA02231943EE
:101E0000818370470A460021018B4FF67F7319408A
:101E10001143018370470A460021018BC1F30E0173
:101E20004FF6FF7303EA02231943018370470A4602
:101E30000021818B4FF67F731940114381837047D6
:101E40000A460021818BC1F30E014FF6FF7303EAAE
:101E500002231943818370470A460021018C4FF603
:101E6000FD7319401143018470470A460021018C1B
:101E70004FF6F77319401143018470470A46002159
:101E8000018C4FF6DF7319404FF6FF7303EA02131C
:101E90001943018470470A460021018C4FF67F7375
:101EA00019404FF6FF7303EA021319430184704788
:101EB0000A460021018C4FF6FF5319404FF6FF737D
:101EC00003EA02231943018470470A460021018C6A
:101ED0004FF2FF7319404FF6FF7303EA02231943D1
:101EE000018470470A460021018C4DF6FF731940AA
:101EF0004FF6FF7303EA023319430184704730B58C
:101F0000002301248C40A3B2048C9C430484048CE1
:101F100002FA01F5ADB22C43048430BD30B5002384
:101F200004248C40A3B2048C9C430484048C02FAE5
:101F300001F5ADB22C43048430BD70B503460020DA
:101F400000241846183001258D40ACB21D8CA543E5
:101F50001D8409B1082909D100EB6100056825F04D
:101F6000700505600568154305600EE00D1FC5F39B
:101F70004E052844056825F4E045056005684FF6E0
:101F8000FF7606EA02263543056070BD21B102885E
:101F900042F00202028004E002884FF6FD731A400C
:101FA0000280704721B1028842F00402028004E0FE
:101FB00002884FF6FB731A400280704721B1828875
:101FC00042F08002828004E082884FF67F731A40DC
:101FD0008280704702884FF6F7731A4002800288A9
:101FE0000A430280704782884FF68F731A408280BE
:101FF00082880A438280704702894FF6F8731A403C
:10200000028102890A430281704702894FF67F7379
:102010001A40028102890A43028170478184704715
:102020008185704781867047018770478187704737
:10203000A0F84010704702884FF6FF431A40028014
:1020400002880A43028070470146888E7047014625
:10205000088F70470146888F70470146B1F84000ED
:1020600070470146888C70470146088D70470246CC
:102070000020138A0B4201D0012000E000207047AD
:10208000CA430282704730B5024600200023002474
:10209000158A05EA0103958905EA010413B10CB11B
:1020A000012000E0002030BDCA43028270470000DA
:1020B00010B50446FB48844209D101218803FFF78B
:1020C0009BF800214FF48040FFF796F832E0F64885
:1020D000844209D101214804FFF79BF800214FF405
:1020E0000030FFF796F825E0F048844209D101213D
:1020F0008804FFF78EF800214FF48020FFF789F85D
:1021000018E0EB48844209D10121C804FFF781F8A7
:1021100000214FF40020FFF77CF80BE0E5488442F3
:1021200008D101210805FFF774F800214FF4801051
:10213000FFF76FF810BD2DE9F04786B005460E4653
:102140000024A24600BFA1460027B08900B100BF0D
:102150002F462C8A4CF6FF700440F08804432C82F2
:10216000AC894EF6F3100440B08831890843718978
:1021700008430443AC81AC8A4FF6FF400440B08969
:102180000443AC8201A8FEF7B0FFC648874202D1E3
:10219000DDF810A001E0DDF80CA0A88910F4004FD4
:1021A00008D00AEBCA0000EB0A1031684900B0FB06
:1021B000F1F807E00AEBCA0000EB0A103168890069
:1021C000B0FBF1F86420B8FBF0F0040120096421B1
:1021D00001FB1089A88910F4004F08D0322000EBD1
:1021E000C900B0FBF1F000F00700044308E0322022
:1021F00000EB09106421B0FBF1F000F00F00044384
:102200002C8106B0BDE8F0874FF416510160002123
:102210008180C18001810C21418100218181704731
:1022200010B502460020108A4FF2FF0318400B88B9
:102230004C8823438C882343CC8823431843108243
:1022400010BD0021018041808180C180704721B193
:10225000828942F40052828104E082894DF6FF7344
:102260001A4082817047F0B50346002400260025FD
:102270000020A1F510676A3F00D100BF1846C1F3E6
:10228000421401F01F06012707FA06F5012C01D1BF
:102290000C3004E0022C01D1103000E014301AB1EF
:1022A00007682F43076002E00768AF430760F0BD8F
:1022B0001AB1838A0B43838202E0838A8B43838231
:1022C0007047028A4FF6F0731A400282028A0A436C
:1022D0000282704782894FF2FF731A40828182899D
:1022E0000A438281704721B1828942F002028281D1
:1022F00004E082894FF6FD731A4082817047028A9A
:102300004FF6DF731A400282028A0A430282704744
:1023100021B1028A42F48042028204E0028A4BF632
:10232000FF731A4002827047C1F30802828070472F
:1023300001468888C0F308007047818941F0010197
:1023400081817047028BD2B20283028B42EA012262
:1023500002837047028B02F47F420283028B0A439E
:102360000283704721B1828A42F02002828204E017
:10237000828A4FF6DF731A408282704721B1828AC7
:1023800042F01002828204E0828A4FF6EF731A4014
:102390008282704721B1828A42F00802828204E080
:1023A000828A4FF6F7731A408282704721B1828980
:1023B00042F40042828103E08289C2F30E028281EC
:1023C000704721B1828A42F40062828204E0828AEC
:1023D0004FF2FF731A4082827047828A4FF6FB7376
:1023E0001A408282828A0A438282704721B1828A9D
:1023F00042F00202828204E0828A4FF6FD731A40A4
:102400008282704702460020B1F5007F00D100BFF4
:1024100013880B4201D0012000E00020704701F436
:102420000072B2F5007F00D100BFCA43028070473E
:1024300070B502460024002300250020A1F5106697
:102440006A3E00D100BFC1F3421501F01F0301260F
:1024500006FA03F3012D02D19689334006E0022DDE
:1024600002D1168A334001E0968A33400C120126CD
:1024700006FA04F41688344013B10CB1012000E0D0
:10248000002070BD10B500220023A1F510646A3C45
:1024900000D100BF0A1201249440A3B2DC4304809F
:1024A00010BD0000003801400044004000480040DA
:1024B000004C00400050004000BFBF2080F3118856
:1024C000BFF34F8FBFF36F8F00BF00BFFEE7001F4A
:1024D0004FF080730360001F21F001030360001FB1
:1024E0002D4B0360143802602038704700204FF0F5
:1024F000E021086188612948486107200861704728
:1025000010B52748006840F47F0025490860084658
:10251000006840F07F400860FFF7E8FF0020214995
:102520000860FDF721FE002010BD704700BFBF20EE
:1025300080F31188BFF34F8FBFF36F8F00BF19482F
:102540000068401C17490860704716480068401E24
:10255000144908600846006820B9002080F31188FB
:1025600000BF00BF704710B500BFBF2080F31188C7
:10257000BFF34F8FBFF36F8F00BF00F045FA20B15C
:102580004FF0805006491C39086000BF002080F3DE
:10259000118800BF10BD0000B92400083F190100D8
:1025A00020ED00E028000020434A22F00700434AC3
:1025B00010600022414B5A6043F6F872404B5A605B
:1025C00000221A60014643F6F8724A601A460A6011
:1025D00070472DE9F04104464FF0000800F05DFB24
:1025E0003848006820B9FFF7DFFF0120354908604F
:1025F00044B1083414F0070F04D004F00700C0F110
:1026000008000444002C32D043F6F87084422ED2E5
:102610002A4F3846056801E02F462D686868A042B9
:1026200002D228680028F7D1254885421FD0386893
:1026300000F10808286838606868001B102810D965
:102640002E196868001B70606C6071681B4800E0A0
:102650000068026852688A42FAD3026832600660F3
:1026600000BF194968680968081A1749086000F02E
:1026700049FA4046BDE8F08170B506463546B6B128
:10268000083D2C4600F009FB61680C4800E000683A
:10269000026852688A42FAD30268226004600A49DA
:1026A0006068096808440849086000F02BFA70BDAA
:1026B00005480068704770479800002034000020EB
:1026C0003C000020300000202C00002000F1080118
:1026D00041604FF0FF31816000F10801C16001618C
:1026E00000210160704700210161704742684A6023
:1026F00093688B60936859609160086103685B1C04
:102700000360704710B502460B685C1C01D110696C
:1027100007E002F1080000E04068446824689C4239
:10272000FAD944684C604C68A160886041600A61D5
:102730001468641C146010BD01460A69D1E90130B7
:102740009860D1E9010358605068884201D18868D7
:102750005060002008611068401E106010687047CB
:1027600010B5002407E004EB8401FE4A02EB81006F
:10277000FFF7ACFF641C082CF5D3FB48FFF7A6FF5E
:10278000FA48FFF7A3FFFA48FFF7A0FFF948FFF761
:102790009DFFF948FFF79AFFF348F8490860F348AE
:1027A000F749086010BD10B50446FFF7BFFEF548B5
:1027B0000068401CF3490860F348006840B9F248DB
:1027C00004600846006801280DD1FFF7C9FF0AE040
:1027D000EE48006838B9EC480068C06AE16A88428F
:1027E00001D8E9480460EA480068401CE8490860EC
:1027F00094F82C1001208840E64909680843E5490F
:102800000860E16A01EB8101D64A02EB8100211DDB
:10281000FFF76CFFFFF799FEDC48006868B1DA4803
:102820000068C06AE16A884207D24FF08050DA49F6
:102830000860BFF34F8FBFF36F8F10BD2DE9FF5FAF
:1028400080460E469146DDE90E7A109CA9F1010002
:10285000216B01EB800B2BF0070B86B1002507E005
:10286000715D04F134004155705D00B902E06D1CEA
:10287000102DF5D300BF00214320015502E00020B8
:1028800084F83400082F00D30727E762201DFFF7E4
:102890002AFF04F11800FFF726FF2461C7F10800A2
:1028A000A06164620020606484F848004146584694
:1028B000039AFFF70CFE2060BAF1000F01D0CAF8AE
:1028C0000040BDE8FF9F2DE9FF4F85B08046894657
:1028D0001746DDE912ABB800FFF77BFE064656B19E
:1028E0004C20FFF776FE04460CB1266304E0304628
:1028F000FFF7C2FE00E000247CB10020CDE900AB70
:10290000CDE902403A4649464046089BFFF796FF0C
:102910002046FFF748FF012501E04FF0FF3528462C
:1029200009B0BDE8F08F95490968096809B9012126
:1029300000E0002121B14FF0FF31984A116006E01C
:102940008E490968C968C868944A4168116070472F
:1029500010B50446206BFFF78FFE2046FFF78CFE74
:1029600010BD70B50546FFF7E1FD15B98648006852
:1029700000E028460446201DFFF7DEFE78B9E06A35
:1029800000EB8000774951F8200040B994F82C10F2
:10299000012088407F49096881437E480160A06A20
:1029A00018B104F11800FFF7C7FE79480068401C11
:1029B0007749086074480068844209D1211D6D4838
:1029C000FFF794FE76480068401C7549086009E0EE
:1029D0006C480068401E6B4908602046FFF7B8FF4E
:1029E000FFF7A1FFFFF7B1FD6848006858B16648DE
:1029F0000068844207D14FF0805067490860BFF3F8
:102A00004F8FBFF36F8F70BD2DE9F04100276548F0
:102A10000068002868D164480068451C6248056069
:102A20008DB95648D0F80080554800685349086071
:102A30005348C0F800805D480068401C5B4908604E
:102A4000FFF771FF00BF5548006885423BD300BFC8
:102A50004A480068006808B9012000E0002020B161
:102A60004FF0FF304D4908602CE044480068C068D2
:102A7000C4686668B54202D24848066022E0201D5C
:102A8000FFF75AFEA06A18B104F11800FFF754FED0
:102A900094F82C10012088403E49096808433D49BC
:102AA0000860E16A01EB81012E4A02EB8100211DE1
:102AB000FFF71CFE3449E06A0968C96A8842C7D337
:102AC0000127C5E700BF30480068C06A00EB8000FE
:102AD000244951F82000012800D901273448006812
:102AE00008B903F0E7FE06E031480068401C3049B1
:102AF000086003F0DFFE2F48006800B10127384668
:102B0000BDE8F08170B500240026FFF70FFD2548D1
:102B10000068401E234908600846006800287AD1F2
:102B200018480068002876D04FE01148C068C46893
:102B300004F11800FFF700FE201DFFF7FDFD94F8DB
:102B40002C10012088401349096808431149086086
:102B5000E16A01EB8101034A02EB8100211DFFF7CD
:102B6000C5FD29E090400020304100204441002074
:102B7000584100206C410020804100207800002056
:102B80007C0000204C000020440000205800002061
:102B9000680000205400002004ED00E06C000020DC
:102BA0004800002074000020500000206400002035
:102BB0005C00002060000020F849E06A0968C96AEA
:102BC000884202D30120F6490860F648006808B937
:102BD000012000E000200028A7D00CB1FFF7A3FEE1
:102BE000F148056865B100BFFFF70EFF10B1012085
:102BF000EB4908606D1E002DF6D10020EA490860FF
:102C0000E748006838B101263007E8490860BFF39B
:102C10004F8FBFF36F8FFFF798FC304670BD2DE9E3
:102C2000F04105460E46E2480768DC480068001D92
:102C3000FFF782FD50B9D948006890F82C100120A8
:102C40008840DC4909688143DA480160681C07D183
:102C500036B1D2480168091DD748FFF747FD1AE091
:102C60007C19CE4800684460BC4207D2CB4801685A
:102C7000091DD2480068FFF745FD0CE0C748016810
:102C8000091DCF480068FFF73DFDCE48006884422B
:102C900001D2CC480460BDE8F081CB480068401CFC
:102CA000C949086070472DE9F047044688464FF04F
:102CB0000009FFF7F2FFBE480668206800EB080530
:102CC0002068B04207D92068A8420BD9B54209D97B
:102CD0004FF0010906E02068A84201D8B54201D9A9
:102CE0004FF001092560B9F1000F03D0A81B0021A6
:102CF000FFF795FFFFF706FF07463FB94FF08050FB
:102D0000AA490860BFF34F8FBFF36F8FBDE8F0870C
:102D100070B50446002544B1FFF7BFFF00212046EF
:102D2000FFF77DFFFFF7EEFE05463DB94FF08050FF
:102D30009E490860BFF34F8FBFF36F8F70BD70B5B2
:102D40000446FFF7F3FB14B99448006800E02046FE
:102D50000646F56AFFF7F9FB284670BD70B50246D6
:102D600000BFBF25EFF3118485F31188BFF34F8FA8
:102D7000BFF36F8F00BF214612B9884C246800E072
:102D800014462346D86A00BF81F3118800BF70BD86
:102D90002DE9F04780460D464FF00009082D00D37D
:102DA0000725FFF7C3FBB8F1000F02D17B4800688D
:102DB00000E040460446E66AAE4251D0B5420BD927
:102DC0007648006884420DD074480068C06AA84202
:102DD00008D84FF0010905E070480068844201D12D
:102DE0004FF00109E76AE562A06910F0004F02D1D7
:102DF000C5F10800A06107EB8701744A02EB81016D
:102E00006069884201D1012000E00020E0B1201D6E
:102E1000FFF792FC30B90120B84066490968814348
:102E20006448016094F82C100120884061490968C9
:102E3000084360490860E16A01EB8101634A02EBE3
:102E40008100211DFFF752FCB9F1000F07D04FF0B0
:102E5000805056490860BFF34F8FBFF36F8F00BF9C
:102E6000FFF773FBBDE8F0875748006818B10120F1
:102E70004B4908601DE00020494908604D48006842
:102E8000B0FA80F0C0F11F0101EB81024F4B03EB60
:102E9000820042685268426000F10802436893422F
:102EA00002D14268526842604268D2683B4B1A6065
:102EB00000BF704770B50546FFF738FB15B93748B6
:102EC000006800E028460446201DFFF735FC78B96D
:102ED000E06A00EB80003D4951F8200040B994F8C9
:102EE0002C10012088403349096881433148016032
:102EF000A06A18B104F11800FFF71EFC211D2E482E
:102F0000FFF7F4FB94F84800012802D1002084F870
:102F10004800FFF71AFB2E48006828B1FFF706FBB0
:102F2000FFF701FDFFF711FB1C480068844217D131
:102F30002748006840B14FF080501C490860BFF33B
:102F40004F8FBFF36F8F0BE01B4800682149096862
:102F5000884203D100201149086001E0FFF784FF97
:102F600070BD10B5014600200A46134C5369A342B8
:102F700001D1012300E0002373B10A4C936AA342FC
:102F800001D1012300E0002333B9936A0BB9012377
:102F900000E0002303B1012010BD00004400002028
:102FA00060000020584100205C00002004ED00E09B
:102FB0005000002054000020804100207C000020B0
:102FC000780000206C000020740000209040002059
:102FD000580000204C00002070B505462C46FE48E5
:102FE000006884422BD054B3FFF7A0FA2046FFF7C5
:102FF000B8FF10B3201DFFF79FFB94F82C100120A1
:103000008840F64909680843F4490860E16A01EB21
:103010008101F34A02EB8100211DFFF767FBEE49B6
:10302000E06A0968C96A884207D34FF08050ED49C9
:103030000860BFF34F8FBFF36F8FFFF786FA70BD45
:103040002DE9F04106460027344600BFBF21EFF3CB
:10305000118081F31188BFF34F8FBFF36F8F00BFD3
:1030600005462046FFF77DFF20B3DF480068E0B942
:10307000D949E06A0968C96A884200D30127201D3E
:10308000FFF75AFB94F82C1001208840D3490968B7
:103090000843D2490860E16A01EB8101D04A02EBA2
:1030A0008100211DFFF722FB04E004F11801CF4845
:1030B000FFF71CFB00BF85F3118800BF3846BDE851
:1030C000F08110B516E0FFF731FAC948C068C4684E
:1030D000201DFFF731FBC7480068401EC549086046
:1030E000C5480068401EC4490860FFF72EFA204614
:1030F000FFF72EFCC04800680028E4D110BD00BFD7
:10310000FFF7DFFFB64800680128F9D94FF080507B
:10311000B4490860BFF34F8FBFF36F8FF0E71CB562
:10312000B64800210B468022CDE90010B4A1B64874
:10313000FFF7C9FB0446012C14D100BFBF2080F368
:103140001188BFF34F8FBFF36F8F00BF4FF0FF3079
:10315000AE4908600120AE4908600020AD49086012
:10316000FFF7CEF91CBD10B500BFBF2080F311885A
:10317000BFF34F8FBFF36F8F00BF0020A4490860DB
:10318000FFF7D3F910BDA349086870470021A14A91
:1031900010687047974800687047014611B98E481B
:1031A000006800E00846024602F13400704770B53E
:1031B00005460C468848016818312846FFF7A2FAF0
:1031C00001212046FFF72BFD70BD70B506460C4669
:1031D000154644F000408049096888617E480168CE
:1031E00018313046FFF782FA01212846FFF717FD14
:1031F00070BD70B50646F068C46804F11800FFF7AA
:103200009BFA79480068A8B9201DFFF795FA94F851
:103210002C10012088407149096808436F490860F3
:10322000E16A01EB81016E4A02EB8100211DFFF78B
:103230005DFA04E004F118016C48FFF757FA66499B
:10324000E06A0968C96A884204D9012501207249E7
:10325000086000E00025284670BD70B505460E46A2
:1032600046F000402860EC682846FFF765FA201D0C
:10327000FFF762FA94F82C1001208840574909683A
:10328000084356490860E16A01EB8101544A02EBA8
:103290008100211DFFF72AFA4F49E06A0968C96ACF
:1032A000884202D901205C49086070BD10B504460F
:1032B000FFF73CF959480068206056480068606094
:1032C000FFF743F910BD5549096801605149096884
:1032D0004160704770B506460C46FFF727F94D4828
:1032E00002687068131A2068401C01D1002517E09D
:1032F0004A4930680968884204D07068904201D811
:1033000001250DE02068984207D92068C01A206086
:103310003046FFF7D8FF002502E00020206001259D
:10332000FFF713F9284670BD01203B49086070473C
:1033300029490968886928490968C96AC1F10801E9
:10334000254A12689161704770B506460D46FFF731
:10335000EDF821480068406C88B901201E490968D1
:1033600081F848005DB101212846FFF758FC4FF075
:1033700080501C490860BFF34F8FBFF36F8FFFF77A
:10338000E4F8FFF7D3F814480068446C4CB126B158
:10339000002011490968486403E0601E0E4909686D
:1033A000486400200C49096881F84800FFF7CDF80F
:1033B000204670BD2DE9F0410746884614461D465B
:1033C000FFF7B4F80448006890F8480002283ED09F
:1033D0000149096824E00000440000205400002056
:1033E0009040002004ED00E07400002058410020CF
:1033F0006C4100204C00002048000020700000209C
:1034000049444C4500000000FF3000086C000020DB
:1034100058000020500000206000002064000020C0
:1034200001F14400496CB94301600120B2490968C7
:1034300081F848005DB101212846FFF7F0FB4FF00D
:103440008050AE490860BFF34F8FBFF36F8FFFF717
:103450007CF8FFF76BF81CB1A7480068406C20604F
:10346000A548006890F84800022801D0002608E02E
:10347000A149096801F14400496C21EA0801016091
:10348000012600209C49096881F84800FFF75DF893
:103490003046BDE8F0812DE9F04781460D461646DD
:1034A0001F464FF0010A4C46FFF740F80FB1606C21
:1034B000386094F84880022084F84800052E17D21E
:1034C000DFE806F01503070B0D00606C284360640D
:1034D0000FE0606C401C60640BE0656409E0B8F1CB
:1034E000020F01D0656401E04FF0000A01E000E046
:1034F00000BF00BFB8F1010F22D1201DFFF71CF95A
:1035000094F82C10012088407D49096808437C49C3
:103510000860E16A01EB81017A4A02EB8100211D1A
:10352000FFF7E4F87449E06A0968C96A884207D974
:103530004FF0805071490860BFF34F8FBFF36F8F1A
:10354000FFF703F85046BDE8F0872DE9F84F8346B2
:103550000D4616461F46DDF828A0012000905C4667
:1035600000BFBF21EFF3118081F31188BFF34F8FAC
:10357000BFF36F8F00BF81460FB1606C386094F865
:103580004880022084F84800052E17D2DFE806F0B4
:103590001503070B0D00606C284360640FE0606C3E
:1035A000401C60640BE0656409E0B8F1020F01D0D3
:1035B000656401E00020009001E000E000BF00BF72
:1035C000B8F1010F2CD150480068A8B9201DFFF7B1
:1035D000B3F894F82C100120884049490968084341
:1035E00047490860E16A01EB8101464A02EB81002C
:1035F000211DFFF77BF804E004F118014348FFF7B1
:1036000075F83D49E06A0968C96A884208D9BAF183
:10361000000F02D00120CAF8000001203C490860D8
:1036200000BF89F3118800BF0098BDE8F88F2DE92D
:10363000F04105460E462C4600BFBF21EFF3118036
:1036400081F31188BFF34F8FBFF36F8F00BF074621
:1036500094F84880022084F84800606C401C606444
:10366000B8F1010F29D128480068A8B9201DFFF73B
:1036700063F894F82C100120884021490968084318
:103680001F490860E16A01EB81011E4A02EB8100DB
:10369000211DFFF72BF804E004F118011B48FFF788
:1036A00025F81549E06A0968C96A884205D90EB14A
:1036B0000120306001201649086000BF87F311889F
:1036C00000BFBDE8F08170B5054615B90A4800682D
:1036D00000E028460646FEF729FF96F84800022833
:1036E00004D1002086F84800012400E00024FEF701
:1036F0002CFF204670BD00004400002004ED00E0D7
:103700005400002090400020740000205841002008
:10371000600000200146F94A12688A4203D3F74A42
:103720001268501A04E0F64A521AF44B1B68D0187B
:103730007047F2480068704770B505460E46EF487E
:10374000A0F81851002405E0315DEC48183001550F
:10375000601C84B2AC42F7DB002240F22551E948FC
:10376000FEF781FD012240F22661E648FEF77BFD6F
:1037700070BD70B504460D461646AA21DF4880F894
:103780009810DD2180F8991080F89A4080F89B50BD
:1037900080F89C6090F8981090F899004840D749BC
:1037A00091F89A104840D54991F89B104840D34968
:1037B00091F89C104140D14880F89D1000F198018B
:1037C0000620FFF7B9FF70BD0121CC4880F81C111D
:1037D000002180F81E11A0F82011704700B50246A4
:1037E000C648B0F8240108B9FFF7EEFFC34890F8C7
:1037F0001C0100F00F0009287ED2DFE800F0F4057C
:103800001B314B65819DC300AA2A0ED10221BB4802
:1038100080F81C1190F81E015040B84981F81E0133
:103820000A21B648A0F8241103E00021B348A0F80B
:103830002411D9E0DD2A0ED10321B04880F81C11F3
:1038400090F81E015040AD4981F81E010A21AB4895
:10385000A0F8241103E00021A848A0F82411C3E037
:103860000421A64880F81C110A21A0F82411B0F800
:103870002011B0F82001401C83B2A048A0F82031EC
:1038800058304254583890F81E0150409B4981F8F6
:103890001E01A9E00521994880F81C110A21A0F811
:1038A0002411B0F82011B0F82001401C83B29348D5
:1038B000A0F8203158304254583890F81E0150403A
:1038C0008E4981F81E018FE006218C4880F81C117A
:1038D0000A21A0F82411B0F82011B0F82001401CF2
:1038E00083B28648A0F8203158304254583890F8B6
:1038F0001E015040814900E075E081F81E0173E02F
:1039000007217E4880F81C110A21A0F8241180F8B4
:103910001D21B0F82011B0F82001401C83B2774877
:10392000A0F8203158304254583890F81E015040C9
:10393000724981F81E0157E0704890F81D01401E41
:10394000C1B26E4880F81D1190F81D0118B9082108
:103950006A4880F81C110A216848A0F82411B0F8C0
:103960002011B0F82001401C83B26448A0F8203137
:1039700058304254583890F81E0150405F4981F841
:103980001E0131E05D4890F81E01904226D10021D1
:103990005A48A0F8221111E05848B0F822115830C6
:1039A000415C5838B0F82231D830C154D838B0F81A
:1039B0002201401C81B25148A0F822114F48B0F8B2
:1039C000221190F85B00001D8142E5DB01214B488C
:1039D00080F826110021A0F8241103E000214748B7
:1039E000A0F8241100E000BF00BF00BD70B505467F
:1039F0000E464248A0F82852002404E0315D4248B7
:103A00000155601C84B2AC42F8DB012240F2266111
:103A10003E48FEF728FC70BD70B504460D461646BC
:103A2000AA21364880F8A811DD2180F8A91180F874
:103A3000AA4180F8AB5180F8AC6190F8A81190F8D9
:103A4000A90148402D4991F8AA1148402B4991F805
:103A5000AB114840294991F8AC114140274880F802
:103A6000AD1100F5D4710620FFF7C0FF70BD012134
:103A7000224880F82C12002180F82E12A0F8301273
:103A8000704700B502461D48B0F8340208B9FFF788
:103A9000EEFF1A4890F82C0200F00F00092872D2AD
:103AA000DFE800F071051B3B56728DAAD100AA2AEF
:103AB0000ED10221114880F82C1290F82E025040AD
:103AC0000E4981F82E020A210C48A0F8341203E0B6
:103AD00000210A48A0F83412E9E0DD2A18D10321B8
:103AE000064880F82C1290F82E025040034981F8C5
:103AF0002E020A210148A0F834120DE0A84100204E
:103B0000005C260500380140D0420020004C0040F7
:103B10000021F748A0F83412C9E00421F44880F8E5
:103B20002C120A21A0F83412B0F83012B0F830028A
:103B3000401C83B2EE48A0F8303200F5B470425415
:103B4000EB4890F82E025040E94981F82E02AEE091
:103B50000521E74880F82C120A21A0F83412B0F8A9
:103B60003012B0F83002401C83B2E148A0F8303285
:103B700000F5B4704254DE4890F82E025040DC4903
:103B800081F82E0293E091E00621D94880F82C12AA
:103B90000A21A0F83412B0F83012B0F83002401CFC
:103BA00083B2D348A0F8303200F5B4704254D04804
:103BB00090F82E025040CE4981F82E0277E007217E
:103BC000CB4880F82C120A21A0F8341280F82D225C
:103BD000B0F83012B0F83002401C83B2C448A0F8EC
:103BE000303200F5B4704254C14890F82E02504073
:103BF000BF4981F82E025AE0BD4890F82D02401EC0
:103C0000C1B2BB4880F82D1290F82D0218B90821D6
:103C1000B74880F82C120A21B548A0F83412B0F841
:103C20003012B0F83002401C83B2B148A0F83032F4
:103C300000F5B4704254AE4890F82E025040AC49A2
:103C400081F82E0233E0AA4890F82E02904228D143
:103C50000021A748A0F8321213E0A548B0F83212AC
:103C600000F5B470415CA248B0F8323200F5F4704F
:103C7000C1549F48B0F83202401C81B29C48A0F861
:103C800032129B48B0F8321290F86B01001D81424D
:103C9000E3DB0121964880F836120021A0F83412A7
:103CA00003E000219248A0F8341200E000BF00BFFA
:103CB00000BD70B505460E468D48A0F83853002467
:103CC00004E0315D8B480155601C84B2AC42F8DBE6
:103CD000012240F226618848FEF7C5FA70BD2DE941
:103CE000F04705460E4617461C46DDE90889552172
:103CF0007F4880F8B812AA2180F8B91280F8BA5229
:103D000080F8BB6280F8BC72211280F8BD1280F886
:103D1000BE424FEA282180F8BF1280F8C08280F8A6
:103D2000C19290F8BA1290F8BB024840704991F8DD
:103D3000BC1248406E4991F8BD1248406C4991F858
:103D4000BE1248406A4991F8BF124840684991F84C
:103D5000C0124840664991F8C1124140644880F859
:103D6000C21200F52E710B20FFF7A3FFBDE8F0870C
:103D700001215F4880F83C13002180F83E13A0F831
:103D80004013704700B502465948B0F8440308B9DB
:103D9000FFF7EEFF564890F83C0300F00F000728AD
:103DA00074D2DFE800F0AB0413223D587400552AAA
:103DB00007D102214E4880F83C130A21A0F8441391
:103DC00003E000214A48A0F8441398E0AA2A07D14A
:103DD0000321474880F83C130A21A0F8441303E06C
:103DE00000214348A0F8441389E00421404880F8AA
:103DF0003C130A21A0F84413B0F84013B0F8400374
:103E0000401C83B23A48A0F8403300F51E7042547B
:103E1000374890F83E035040354981F83E036EE044
:103E20000521334880F83C130A21A0F84413B0F868
:103E30004013B0F84003401C83B22D48A0F8403333
:103E400000F51E7042542A4890F83E03504028491D
:103E500081F83E0353E00621254880F83C130A21EF
:103E6000A0F84413B0F84013B0F84003401C83B2EC
:103E70001F48A0F8403300F51E7042541C4890F8CB
:103E80003E0350401A4981F83E0338E036E01848B6
:103E900090F83E03904225D100211548A0F8421326
:103EA00013E01348B0F8421300F51E70415C10484F
:103EB000B0F8423300F53E70C1540D48B0F84203EB
:103EC000401C81B20A48A0F842130948B0F84203E6
:103ED0000328E6DB0121064880F846130021A0F8FC
:103EE000441303E000210248A0F8441307E0000057
:103EF000A8410020E04300200050004000BF00BF68
:103F000000BD00B5FFF715FCF949486000BD2DE97B
:103F1000F0478046894616461C46002500270CE0DF
:103F200049464046FCF709FFB04201D1681CC5B2C2
:103F30000A20FEF7EDFE781CC7B2A742F0DB95FB26
:103F4000F4F0C5B2012D02D10120BDE8F0870020B8
:103F5000FBE72DE9F04781468A4614461D460027B7
:103F6000B846FEF7E3FA0121E248FDF7C3FD5146EA
:103F70004846FCF7E2FE064605E0781C0746B0F529
:103F8000801F00D305E051464846FCF7D6FEB042FC
:103F9000F3D000BF0020D649086105E0781C074631
:103FA000B0F5801F00D305E051464846FCF7C5FE3A
:103FB000B042F3D100BF002705E0781C0746B0F5FA
:103FC000801F00D305E051464846FCF7B6FEB042DC
:103FD000F3D000BFC648D0F810800021C548FDF7D7
:103FE00089FDFEF7B2FA601B404505D860194045CF
:103FF00002D30120BDE8F0870020FBE72DE9F04166
:1040000007460D4616460024A0460BE03888C0F34C
:104010000B00204484B20A20FEF77AFE08F101006A
:1040200000F0FF08B8F1050FF0DB052094FBF0F07D
:1040300084B2A81BA04205DAA819A04202DD012023
:10404000BDE8F0810020FBE72DE9F0478046894676
:104050001546002600271DB90120A74908600DE07C
:10406000012D03D10120A549086007E0022D05D1EB
:104070000120A3490860A349C1F8940140F2CF216F
:104080004FF0C80002F0C8FA14219F48FDF7CCFF9A
:10409000FEF74CFA01219748FDF72CFD49464046B2
:1040A000FCF74BFE044605E0701C0646B0F5801F89
:1040B00000D305E049464046FCF73FFEA042F3D05E
:1040C00000BF00208A49086105E0701C0646B0F573
:1040D000801F00D305E049464046FCF72EFEA04273
:1040E000F3D100BF002605E0701C0646B0F5801F26
:1040F00000D305E049464046FCF71FFEA042F3D03E
:1041000000BF7B48076900217A48FDF7F3FCFEF702
:104110001CFA0020784908607C49C1F884014FF0FE
:1041200047014FF01A0002F077FA00217648FDF7B8
:104130007BFF082F04D30C2F02D80120BDE8F087A5
:104140000020FBE770B505460C46062D75D2DFE86A
:1041500005F0800323435567012C0DD1644890F886
:104160004D0320F00300401C614981F84D030D21EF
:104170006548FDF759FF0EE000216348FDF754FF45
:104180005B4890F84D0320F00301594880F84D1327
:1041900001205F4908605DE0012C0DD1544890F882
:1041A0004D0320F00300801C514981F84D030D217F
:1041B0005548FDF739FF0EE000215348FDF734FF65
:1041C0004B4890F84D0320F00301494880F84D1307
:1041D00001204F4908603DE0012C07D101214448EE
:1041E00080F8601300204449086006E00021404840
:1041F00080F860130120404908602BE0012C07D1B2
:1042000001213B4880F8601300203C49086006E02B
:104210000021374880F8601301203849086019E010
:10422000012C0BD10121324880F86013002039495C
:1042300008603449C1F890010AE00AE000212C48E6
:1042400080F860130120334908602E49C1F89001BD
:1042500000E000BF00BF70BD0B286BD2DFE800F0AC
:1042600006101A242E38426F79838D00012903D15C
:104270000122294B1A6002E00022274B1A607EE0DF
:10428000012903D10122254B1A6002E00022234BB1
:104290001A6074E0012903D10122214B1A6002E067
:1042A00000221F4B1A606AE0012903D101221D4B35
:1042B0001A6002E000221B4B1A6060E0012903D162
:1042C0000122194B1A6002E00022174B1A6056E0D7
:1042D000012903D10122154B1A6002E00022134B81
:1042E0001A604CE0012926D10122114B1A6025E009
:1042F000A841002000040040AC8123428481214277
:104300009081234200802342002C01400080214202
:10431000800122429481234280012342A4812142D0
:10432000A08121429C812142988121429481214295
:104330009081214222E00022534B1A601FE00129A4
:1043400003D10122514B1A6002E000224F4B1A6048
:1043500015E0012903D101224D4B1A6002E0002231
:104360004B4B1A600BE0012903D10122494B1A6023
:1043700002E00022474B1A6001E000E000BF00BFEE
:104380007047454A1154704790B919B90022434B00
:104390001A600CE0012903D10122404B1A6006E0AB
:1043A0003E4A12686FEA02023D4BC3F8942100E0D6
:1043B00000BF00BF704701460A291AD2DFE801F0AA
:1043C0000507090B0D0F11131517302012E03120CE
:1043D00010E032200EE033200CE034200AE03520DB
:1043E00008E0362006E0372004E0382002E03920DB
:1043F00000E000BF00BF704770B504460D462A4676
:104400000A2092FBF0F100FB112086B23046FFF744
:10441000D2FF20710A2092FBF0F082B20A2092FBB8
:10442000F0F100FB112086B23046FFF7C4FFE070C8
:104430000A2092FBF0F082B20A2092FBF0F100FB1E
:10444000112086B23046FFF7B6FFA0700A2092FB1B
:10445000F0F082B20A2092FBF0F100FB112086B24C
:104460003046FFF7A8FF60700A2092FBF0F082B29E
:104470000A2092FBF0F100FB112086B23046FFF7D4
:104480009AFF207070BD0000908121428C812142F2
:10449000BC012442B8012442FC4400209401224281
:1044A0000000224210B54FF400712348FCF745FC90
:1044B00020BB224890F84E03C0F3800010BB1F4879
:1044C00090F85C0310F0010F1CD01C4890F84F03CB
:1044D000401CC1B2194880F84F1390F84F030528CB
:1044E00010DD0521154880F84F1390F84E0320F099
:1044F0000400001D114981F84E0303E000210F481C
:1045000080F84F1310BD00BFFFF713F90546FCF705
:10451000D8FCFFF7C7FF2846FFF7FCF8322806D281
:104520002846FFF7F7F8C0F13200C4B200E00024DB
:104530002046FEF7EDFBE7E7001C0140A841002004
:104540002DE9FF4F83B004460D461646DDF84C902A
:10455000DDE910784FF0000AD34600BF0AF10100F0
:10456000C0B28246484502DD07B0BDE8F08FCDE914
:104570000078324629462046069BFFF7B0FBFFF73E
:10458000D8F8FE49486119E0FC4890F8460310F05D
:10459000010F13D00021F94880F8461390F8F80273
:1045A000A0420BD1F54890F8F902A84206D1F34891
:1045B00090F8FA02012801D1834606E0EF494869E4
:1045C000FFF7A8F812998842DED300BF0021EB481C
:1045D00080F84613BBF1000FC0D000BFC4E72DE93F
:1045E000F0470746884691461C46DDE908A50026A7
:1045F0000021E24880F8DC10BAF1000F22D100BFA0
:10460000701CC0B20646A84202DD0020BDE8F0875B
:104610004A4641463846FFF7ACF82046FEF778FB9D
:10462000D64890F8260110F0010FE9D0D34890F851
:10463000260110F0010F1BD0D04890F8DC000028B4
:10464000DED015E000BF701CC0B20646A84201DDF6
:104650000020DBE74A4641463846FFF78AF8204605
:10466000FEF756FBC54890F8260110F0010FEAD07E
:104670000021C24880F826110120C7E786B000BF9C
:10468000FCF71FFCBD4890F85C0310F0010F55D1FA
:10469000BA4890F8460310F0010FF1D00021B74856
:1046A00080F8461390F8F80202281BD1B34890F81E
:1046B000F902012804D0B14890F8F902022811D17A
:1046C000AE4890F8FA0201280CD100200090019029
:1046D000AA4890F8F9020023012201460590022021
:1046E000FFF7FDFAA54890F8F80202280FD1A34879
:1046F00090F8F90204280AD1A04890F8FA0201289B
:1047000005D101219D4880F85C1380F85E139B4819
:1047100090F8F8020228B3D1984890F8F9020528D9
:10472000AED1964890F8FA020128A9D10121934808
:1047300080F85C13022180F85E13A1E78F4890F89F
:10474000360210F0010F2DD000218C4880F836126F
:1047500003204FF47A71002200921346CDE9012123
:104760000390012201460220FFF7EAFE4FF47A701F
:10477000FEF7CEFA814890F8480320F00200801C32
:104780007E4981F8480301207D4908607D49C1F8D0
:10479000BC014FF47A70FEF7BBFA784890F8EA1142
:1047A00080F84913754890F84E03C0F38000002844
:1047B00052D0724890F84803C0F3400000284BD113
:1047C0000120714908606D4890F84E0320F0040103
:1047D0006A4880F84E1390F84E0320F008016748AD
:1047E00080F84E1390F85E03012807D167490860EE
:1047F0006449C1F8B001664908600AE05F4890F872
:104800005E03022805D101205D4908605D49C1F8B9
:10481000BC014FF003004FF47A714FF00002009298
:104820001346CDE9012103904FF0010201464FF0FC
:104830000200FFF785FE4FF47A70FEF769FA4F48E1
:1048400090F8480320F00200801C4C4981F848038E
:1048500001214A4880F84913484890F84803C0F3BA
:10486000400000283FF469AF444890F8491390F89D
:104870004A038142F6D0414890F8491380F84A1320
:1048800090F849031C2881F05C82DFE810F05A0A96
:104890001C0022004F008C00C400F6006101CA0118
:1048A00087022A03CD0370041F05C2056506180799
:1048B000BB076C089908D20800092F095C098A090E
:1048C000B809E609170A02212C4880F8491301F0BB
:1048D00039BA0A23012291032E48FFF718FB012859
:1048E0000ED103204FF47A71002200921346CDE9D5
:1048F00001210390012202211046FFF721FE10E062
:1049000003204FF47A71002200921346CDE9012171
:10491000039002210120FFF713FE0121174880F8C0
:104920005D130321154880F84913D0E70A230122BB
:1049300051031848FFF7EBFA01280ED103204FF47A
:104940007A71002200921346CDE9012103900122E1
:1049500001461046FFF7F4FD20E003204FF47A7182
:10496000002200921346CDE9012103900146012067
:10497000FFF7E6FD012101480EE00000A8410020FC
:10498000B001214200002142B4012442AC01214285
:10499000BC0121420018014080F85D130421F94850
:1049A00080F8491393E701210846FFF7CBFB642009
:1049B000FEF7AEF9142364224FF48071F248FFF73A
:1049C000C8FA01280ED103204FF47A710022009218
:1049D0001346CDE901210390012204211046FFF77F
:1049E000AFFD10E003204FF47A71002200921346CD
:1049F000CDE90121039004210120FFF7A1FD012150
:104A0000E04880F85D136420FEF782F90521DD4857
:104A100080F849135BE7142364224FF40071DB48EC
:104A2000FFF797FA01280ED103204FF47A71002284
:104A300000921346CDE90121039001220521104681
:104A4000FFF77EFD10E003204FF47A710022009200
:104A50001346CDE90121039005210120FFF770FDE8
:104A60000121C84880F85D1300210120FFF76AFB8F
:104A70000621C44880F8491329E701F033FEC148F4
:104A8000B0F89214A0F8AE14B0F8AE047C2840DA66
:104A900001210320FFF756FB6420FEF739F9B948DE
:104AA000B0F89214A0F8B014B0F8B004B0F5FA7FE2
:104AB00015DD03214FF47A720023B248B0F8B00438
:104AC000CDE9013203910090AE48B0F8AE04034640
:104AD0000122062105901046FFF732FD2FE0032149
:104AE0004FF47A720223A748B0F8B004CDE901323E
:104AF00003910090A348B0F8AE04034600220621BB
:104B000005900120FFF71CFD01219E4880F85D13F0
:104B100015E003204FF47A710023CDE90030CDE990
:104B200002109848B0F8AE04034600220621059012
:104B30000120FFF705FD0121924880F85D13002157
:104B40000320FFF7FFFA07218E4880F84913BEE6DD
:104B50008C48B0F89414A0F8AE14B0F8AE047C28D9
:104B600040DA01210420FFF7EDFA6420FEF7D0F8C7
:104B70008448B0F89414A0F8B014B0F8B004B0F5BC
:104B8000FA7F15DD03214FF47A7200237D48B0F8D7
:104B9000B004CDE90132039100907A48B0F8AE0438
:104BA00003460122072105901046FFF7C9FC2FE0BC
:104BB00003214FF47A7202237248B0F8B004CDE9B1
:104BC0000132039100906F48B0F8AE040346002212
:104BD000072105900120FFF7B3FC0121694880F807
:104BE0005D1315E003204FF47A710023CDE9003006
:104BF000CDE902106348B0F8AE0403460022072155
:104C000005900120FFF79CFC01215E4880F85D13B0
:104C100000210420FFF796FA08215A4880F849132A
:104C200055E601210520FFF78DFAC820FEF770F840
:104C30005448B0F89614A0F8AE14B0F8AE0440F69C
:104C4000B83188427FDA01214E4880F8AC14002048
:104C5000FFF702FB40F2DC50FEF75AF84948B0F883
:104C60009614A0F8B014B0F8B004B0F5966F32DD29
:104C700047A10220FEF7BAFE3220FEF749F841486C
:104C8000B0F89604014605904248FFF7B5FB41494C
:104C90000520FEF7ABFE3220FEF73AF83EA10220D7
:104CA000FEF7A4FE3220FEF733F803214FF47A72A8
:104CB00000233448B0F8B004CDE9013203910090EC
:104CC0003048B0F8AE040346012208210590104692
:104CD000FFF736FC4DE02EA10220FEF787FE3220C2
:104CE000FEF716F82748B0F89604014605902948C3
:104CF000FFF782FB27490520FEF778FE3220FEF7FA
:104D000007F825A10220FEF771FE3220FEF700F819
:104D100003214FF47A7202231A48B0F8B004CDE9A7
:104D20000132039100901748B0F8AE040346002208
:104D3000082105900120FFF703FC0121114880F8AC
:104D40005D1316E0FFE703204FF47A710023CDE9ED
:104D50000030CDE902100B48B0F8AE040346002243
:104D6000082105900120FFF7EBFB0121054880F8A1
:104D70005D1300210846FFF76FFA0921014880F80A
:104D80004913A4E5A841002000080140001001409B
:104D90006D310000944100200D0A0000FE4890F89B
:104DA000AC0401287ED101210846FFF755FA40F2F4
:104DB000DC50FDF7ADFFF848B0F89614A0F8B01439
:104DC000B0F8B004B0F5966F33DDF4A10220FEF721
:104DD0000DFE3220FDF79CFFEF48B0F89604014627
:104DE0000590EF48FFF708FBED490520FEF7FEFDB3
:104DF0003220FDF78DFFAFF260010220FEF7F6FDD5
:104E00003220FDF785FF03214FF47A720023E24838
:104E1000B0F8B004CDE9013203910090DE48B0F85B
:104E2000AE0403460122092105901046FFF788FBD6
:104E30004EE0DAA10220FEF7D9FD3220FDF768FF2F
:104E4000D548B0F8960401460590D548FFF7D4FA46
:104E5000D3490520FEF7CAFD3220FDF759FFAFF216
:104E6000C8010220FEF7C2FD3220FDF751FF0321E9
:104E70004FF47A720223C848B0F8B004CDE9013289
:104E800003910090C448B0F8AE0403460022092103
:104E900005900120FFF754FB0121BF4880F85D1306
:104EA00016E0FFE703204FF47A710023CDE90030CC
:104EB000CDE90210B848B0F8AE040346002209213B
:104EC00005900120FFF73CFB0121B34880F85D13FA
:104ED00000210120FFF7C0F90A21AF4880F84913EB
:104EE000F5E4AD4890F8AC0401287ED10121022000
:104EF000FFF7B2F940F2DC50FDF70AFFA648B0F820
:104F00009614A0F8B014B0F8B004B0F5966F33DD85
:104F1000A4A10220FEF76AFD3220FDF7F9FE9E48AB
:104F2000B0F89604014605909D48FFF765FA9C4944
:104F30000520FEF75BFD3220FDF7EAFEAFF2A81177
:104F40000220FEF753FD3220FDF7E2FE03214FF46D
:104F50007A7200239048B0F8B004CDE90132039191
:104F600000908D48B0F8AE04034601220A21059056
:104F70001046FFF7E5FA4EE08AA10220FEF736FD63
:104F80003220FDF7C5FE8448B0F89604014605902E
:104F90008348FFF731FA82490520FEF727FD3220CA
:104FA000FDF7B6FEAFF210210220FEF71FFD322002
:104FB000FDF7AEFE03214FF47A7202237648B0F873
:104FC000B004CDE90132039100907348B0F8AE040B
:104FD000034600220A2105900120FFF7B1FA0121C2
:104FE0006D4880F85D1316E0FFE703204FF47A71F7
:104FF0000023CDE90030CDE902106748B0F8AE04D7
:10500000034600220A2105900120FFF799FA0121A9
:10501000614880F85D1300210220FFF71DF90B2184
:105020005D4880F8491352E45B4890F8AC040128CD
:105030007ED101210320FFF70FF940F2DC50FDF78C
:1050400067FE5548B0F89614A0F8B014B0F8B00454
:10505000B0F5966F33DD54A10220FEF7C7FC322075
:10506000FDF756FE4C48B0F89604014605904C48B2
:10507000FFF7C2F94A490520FEF7B8FC3220FDF7D8
:1050800047FEAFF2EC210220FEF7B0FC3220FDF724
:105090003FFE03214FF47A7200233F48B0F8B0047A
:1050A000CDE90132039100903B48B0F8AE040346CD
:1050B00001220B2105901046FFF742FA4EE03AA17B
:1050C0000220FEF793FC3220FDF722FE3248B0F8B2
:1050D0009604014605903248FFF78EF930490520C5
:1050E000FEF784FC3220FDF713FEAFF254310220AC
:1050F000FEF77CFC3220FDF70BFE03214FF47A72A1
:1051000002232548B0F8B004CDE9013203910090A4
:105110002148B0F8AE04034600220B21059001207F
:10512000FFF70EFA01211C4880F85D1316E0FFE737
:1051300003204FF47A710023CDE90030CDE902104D
:105140001548B0F8AE04034600220B21059001205B
:10515000FFF7F6F90121104880F85D1300210320C4
:10516000FFF77AF80C210C4880F849131AE40A4832
:1051700090F8AC0401287DD101210420FFF76CF8E0
:1051800040F2DC50FDF7C4FD0348B0F89614A0F8D7
:10519000B014B0F8B00409E0A84100206D3200005E
:1051A000944100206D3300006D340000B0F5966F1F
:1051B00033DDFEA10220FEF719FC3220FDF7A8FD29
:1051C000FB48B0F8960401460590FA48FFF714F939
:1051D000F8490520FEF70AFC3220FDF799FDAFF2F1
:1051E00048410220FEF702FC3220FDF791FD032129
:1051F0004FF47A720023EE48B0F8B004CDE90132E2
:1052000003910090EA48B0F8AE04034601220C2155
:1052100005901046FFF794F94FE0E4A10220FEF755
:10522000E5FB3220FDF774FDE148B0F89604014635
:105230000590E048FFF7E0F8DE490520FEF7D6FBD1
:105240003220FDF765FDAFF2B0410220FEF7CEFB44
:105250003220FDF75DFD03214FF47A720223D4481A
:10526000B0F8B004CDE9013203910090D048B0F815
:10527000AE0400E00BE0034600220C210590012063
:10528000FFF75EF90121CA4880F85D1315E003209D
:105290004FF47A710023CDE90030CDE90210C44803
:1052A000B0F8AE04034600220C2105900120FFF760
:1052B00047F90121BE4880F85D1300210420FEF764
:1052C000CBFF0D21BA4880F8491340E4B84890F864
:1052D000AC0401287ED101210520FEF7BDFF40F27C
:1052E000DC50FDF715FDB248B0F89614A0F8B014E4
:1052F000B0F8B004B0F5966F33DDAFA10220FEF731
:1053000075FB3220FDF704FDA948B0F8960401466C
:105310000590A848FFF770F8A6490520FEF766FB40
:105320003220FDF7F5FCAFF290510220FEF75EFB54
:105330003220FDF7EDFC03214FF47A7200239C48E4
:10534000B0F8B004CDE90132039100909848B0F86C
:10535000AE04034601220D2105901046FFF7F0F838
:105360004EE095A10220FEF741FB3220FDF7D0FC74
:105370008F48B0F89604014605908E48FFF73CF838
:105380008C490520FEF732FB3220FDF7C1FCAFF25D
:10539000F8510220FEF72AFB3220FDF7B9FC032169
:1053A0004FF47A7202238248B0F8B004CDE901329A
:1053B000039100907E48B0F8AE04034600220D2110
:1053C00005900120FFF7BCF80121794880F85D13B2
:1053D00016E0FFE703204FF47A710023CDE9003097
:1053E000CDE902107248B0F8AE04034600220D2148
:1053F00005900120FFF7A4F801216D4880F85D13A6
:1054000000210520FEF728FF0E21694880F8491386
:1054100006E4674890F8AC0401287ED101210620FB
:10542000FEF71AFF40F2DC50FDF772FC6048B0F85E
:105430009614A0F8B014B0F8B004B0F5966F33DD50
:105440005EA10220FEF7D2FA3220FDF761FC584837
:10545000B0F89604014605905648FEF7CDFF554931
:105460000520FEF7C3FA3220FDF752FCAFF2D861F7
:105470000220FEF7BBFA3220FDF74AFC03214FF46D
:105480007A7200234A48B0F8B004CDE901320391A2
:1054900000904748B0F8AE04034601220E21059063
:1054A0001046FFF74DF84EE044A10220FEF79EFAA9
:1054B0003220FDF72DFC3E48B0F8960401460590D9
:1054C0003C48FEF799FF3B490520FEF78FFA322052
:1054D000FDF71EFCAFF240710220FEF787FA322082
:1054E000FDF716FC03214FF47A7202233048B0F81E
:1054F000B004CDE90132039100902D48B0F8AE041C
:10550000034600220E2105900120FFF719F8012122
:10551000274880F85D1316E0FFE703204FF47A7107
:105520000023CDE90030CDE902102148B0F8AE04E7
:10553000034600220E2105900120FFF701F801210A
:105540001B4880F85D1300210620FEF785FE0F2121
:10555000174880F84913F5E3154890F8AC04012882
:105560007ED101210720FEF777FE40F2DC50FDF7E7
:10557000CFFB0F48B0F89614A0F8B014B0F8B00400
:10558000B0F5966F41DD0EA10220FEF72FFA322012
:10559000FDF7BEFB0648B0F89604014605900548A5
:1055A000FEF72AFF034905200CE000006D350000DE
:1055B000A8410020944100206D3600006D370000A6
:1055C0006D380000FEF712FA3220FDF7A1FBAFF6AE
:1055D00038010220FEF70AFA3220FDF799FB032179
:1055E0004FF47A720023FE48B0F8B004CDE90132DE
:1055F00003910090FA48B0F8AE04034601220F214F
:1056000005901046FEF79CFF50E0AFF24C010220DF
:10561000FEF7ECF93220FDF77BFBF148B0F8960479
:1056200001460590EF48FEF7E7FEEE490520FEF73C
:10563000DDF93220FDF76CFBAFF6A4010220FEF786
:10564000D5F93220FDF764FB03214FF47A7202236F
:10565000E348B0F8B004CDE901320391009000E0D6
:105660000EE0DF48B0F8AE04034600220F2105909B
:105670000120FEF765FF0121D94880F85D1315E090
:1056800003204FF47A710023CDE90030CDE90210F8
:10569000D348B0F8AE04034600220F210590012044
:1056A000FEF74EFF0121CE4880F85D130021072050
:1056B000FEF7D2FD1021CA4880F8491342E3C848DA
:1056C00090F8AC0401287ED101210820FEF7C4FD2A
:1056D00040F2DC50FDF71CFBC148B0F89614A0F86E
:1056E000B014B0F8B004B0F5966F33DDBEA102205F
:1056F000FEF77CF93220FDF70BFBB948B0F89604B1
:1057000001460590B748FEF777FEB6490520FEF73B
:105710006DF93220FDF7FCFAAFF684110220FEF796
:1057200065F93220FDF7F4FA03214FF47A72002371
:10573000AB48B0F8B004CDE9013203910090A8481D
:10574000B0F8AE0403460122102105901046FEF782
:10575000F7FE4EE0A4A10220FEF748F93220FDF743
:10576000D7FA9F48B0F89604014605909D48FEF789
:1057700043FE9C490520FEF739F93220FDF7C8FAAF
:10578000AFF6EC110220FEF731F93220FDF7C0FA36
:1057900003214FF47A7202239148B0F8B004CDE9A6
:1057A0000132039100908E48B0F8AE040346002207
:1057B000102105900120FEF7C3FE0121884880F8E2
:1057C0005D1316E0FFE703204FF47A710023CDE963
:1057D0000030CDE902108248B0F8AE040346002242
:1057E000102105900120FEF7ABFE01217C4880F8D6
:1057F0005D1300210820FEF72FFD1121784880F865
:1058000049139FE2764890F8AC0401287ED101212B
:105810000920FEF721FD40F2DC50FDF779FA7048CF
:10582000B0F89614A0F8B014B0F8B004B0F5966FC4
:1058300033DD6EA10320FEF7D9F83220FDF768FAB8
:105840006748B0F89604014605906648FEF7D4FD17
:1058500064490520FEF7CAF83220FDF759FAAFF681
:10586000C8210220FEF7C2F83220FDF751FA0321C9
:105870004FF47A7200235A48B0F8B004CDE90132EF
:10588000039100905648B0F8AE040346012211215E
:1058900005901046FEF754FE4EE054A10320FEF79B
:1058A000A5F83220FDF734FA4D48B0F896040146C9
:1058B00005904C48FEF7A0FD4A490520FEF796F8F2
:1058C0003220FDF725FAAFF630310220FEF78EF8D0
:1058D0003220FDF71DFA03214FF47A72022340486B
:1058E000B0F8B004CDE90132039100903C48B0F823
:1058F000AE0403460022112105900120FEF720FE90
:105900000121374880F85D1316E0FFE703204FF4CC
:105910007A710023CDE90030CDE902103048B0F8AB
:10592000AE0403460022112105900120FEF708FE77
:1059300001212B4880F85D1300210920FEF78CFC23
:1059400047211A2000F068FE254890F85E030128E0
:1059500004D11B21224880F8491303E0122120487A
:1059600080F84913EEE10523012211032048FEF7D8
:10597000CEFA01280ED103204FF47A710022009252
:105980001346CDE901210390012212211046FEF7B2
:10599000D7FD10E003204FF47A71002200921346E5
:1059A000CDE90121039012210120FEF7C9FD01215B
:1059B0000B4880F85D131321094880F84913C1E1B1
:1059C00005230122D1020A48FEF7A1FA01281AD1C3
:1059D00003204FF47A710022009213460AE000007F
:1059E000A8410020944100206D3900006D31300045
:1059F00000180140CDE90121039001221321104636
:105A0000FEF79EFD10E003204FF47A710022009211
:105A10001346CDE90121039013210120FEF790FDEB
:105A20000121C94880F85D131421C74880F8491343
:105A300088E14FF4967240F63F51C448FEF7DEFA13
:105A400001280ED103204FF47A71002200921346F0
:105A5000CDE901210390012214211046FEF770FDCB
:105A600010E003204FF47A71002200921346CDE932
:105A70000121039014210120FEF762FD0121B248AB
:105A800080F85D131521B04880F849135AE14FF4AE
:105A9000967240F68601AD48801CFEF7AFFA0128E9
:105AA0000ED103204FF47A71002200921346CDE903
:105AB00001210390012215211046FEF741FD10E05F
:105AC00003204FF47A71002200921346CDE90121A0
:105AD000039015210120FEF733FD01219A4880F83B
