:020000040800F2
:1000000020470020B9030008453C0008473C000891
:100010004B3C00084F3C0008533C00080000000027
:100020000000000000000000000000004501000882
:10003000573C00080000000089010008D521000895
:10004000D3030008D3030008D3030008D303000838
:10005000D3030008D3030008D3030008D303000828
:10006000D3030008D3030008D3030008D303000818
:10007000D3030008D3030008D3030008D303000808
:10008000D3030008D3030008D3030008D3030008F8
:10009000D3030008D3030008D3030008D3030008E8
:1000A000D3030008D3030008D3030008D3030008D8
:1000B000593C0008D3030008D3030008D303000809
:1000C000D3030008D3030008D3030008D3030008B8
:1000D000D3030008893C0008D3030008D3030008B9
:1000E000D3030008D3030008D3030008D303000898
:1000F000D3030008D3030008D3030008D303000888
:10010000D3030008D3030008D3030008D303000877
:10011000D3030008D3030008D3030008D303000867
:10012000D3030008D3030008D3030008D303000857
:10013000DFF80CD008F04AFC00480047D53B000827
:1001400020470020224B19680868B0E8F00F80F3C0
:100150000988BFF36F8F4FF0000080F311884EF0D5
:100160000D0E70470000000006480068006880F32C
:10017000088862B661B6BFF34F8FBFF36F8F00DFA1
:1001800000BF00BF08ED00E0EFF30980BFF36F8F01
:100190000F4B1A6820E9F00F106008B54FF0BF0050
:1001A00080F31188BFF34F8FBFF36F8F02F090FC85
:1001B0004FF0000080F31188BDE808401968086816
:1001C000B0E8F00F80F30988BFF36F8F704700BF6E
:1001D00044000020EFF30580704700000CB50020BC
:1001E000019000906B48006840F4803069490860D5
:1001F00000BF6848006800F4003000900198401C7F
:100200000190009818B90198B0F5A06FF1D161483C
:10021000006810F4003F02D00120009001E00020AF
:1002200000900098012842D15B48006840F010001F
:10023000594908600846006820F003000860084635
:10024000006840F002000860524840685149486028
:100250000846406848600846406840F4806048604E
:100260000846406820F47C1048600846406840F426
:10027000E81048600846006840F08070086000BFE1
:100280004448006810F0007FFAD04248406820F0EF
:100290000300404948600846406840F0020048605A
:1002A00000BF3C48406800F00C000828F9D10CBDA4
:1002B00010B5FFF793FF10BD10B53648006840F049
:1002C0000100344908600846406834490840314913
:1002D000486008460068324908402E4908600846D0
:1002E000006820F4802008600846406820F4FE0082
:1002F00048604FF41F008860FFF7DAFF4FF000609E
:100300002849086010BD10B5002100200022214BB3
:100310005B6803F00C0121B1042906D0082928D11B
:1003200007E0214B214C236027E01F4B1F4C23602B
:1003300023E0184B5B6803F47010164B5B6803F402
:100340008032022303EB904022B9194B4343174CF0
:1003500023600DE00F4B5B6813F4003F04D0144B97
:100360004343124C236003E00F4B43430F4C236085
:1003700003E00D4B0D4C236000BF00BF054B5B68D5
:10038000C3F303130B4CE15C084B1B68CB40074CD9
:10039000236010BD00100240002002400000FFF862
:1003A000FFFFF6FE08ED00E000127A0000000020DA
:1003B00000093D0004000020064880470648004729
:1003C000FEE7FEE7FEE7FEE7FEE7FEE7FEE7FEE705
:1003D000FEE7FEE7B9020008310100083149014398
:1003E000314A1160704770B5002100230F22C47894
:1003F0000CB32D4C246804F4E064C4F5E064210AD5
:10040000C1F10403CA40447804FA03F1847814402B
:1004100021430901254C0678A155047804F01F05F5
:100420000124AC4005786D114FF0E02606EB850500
:10043000C5F8004109E0047804F01F050124AC4030
:100440001B4D0678761145F8264070BD194A0A40C2
:100450000243154B1B1F1A60704739B1124A121D17
:1004600012680243104B1B1D1A6006E00E4A121D53
:10047000126882430C4B1B1D1A607047042808D178
:100480004FF0E021096941F004014FF0E0221161D1
:1004900007E04FF0E021096921F004014FF0E0226C
:1004A000116170470000FA050CED00E000E400E087
:1004B00080E100E080FFFF1F10B50446CA48844277
:1004C00008D10121042000F047FB0021042000F0A6
:1004D00043FB46E0C548844208D10121082000F0D2
:1004E0003BFB0021082000F037FB3AE0C048844283
:1004F00008D10121102000F02FFB0021102000F076
:100500002BFB2EE0BB48844208D10121202000F0C3
:1005100023FB0021202000F01FFB22E0B64884428C
:1005200008D10121402000F017FB0021402000F0FD
:1005300013FB16E0B148844208D10121802000F06D
:100540000BFB0021802000F007FB0AE0AC4884424E
:1005500007D10121801500F0FFFA0021A01500F05D
:10056000FBFA10BD10B50121084600F0F5FA002194
:10057000012000F0F1FA10BD2DE9F04102460025FE
:100580000026002000230024002791F803C00CF06F
:100590000F0591F803C01CF0100F03D091F802C0B2
:1005A0004CEA050591F800C0BCF1000F31D0146889
:1005B00000202BE04FF0010C0CFA00F3B1F800C062
:1005C0000CEA03069E4220D183004FF00F0C0CFA78
:1005D00003F7BC4305FA03FC4CEA040491F803C09A
:1005E000BCF1280F06D14FF0010C0CFA00FCC2F848
:1005F00014C00AE091F803C0BCF1480F05D14FF0D8
:10060000010C0CFA00FCC2F810C0401C0828D1D321
:100610001460B1F800C0BCF1FF0F34DD5468002055
:100620002EE000F1080C4FF0010808FA0CF3B1F8C5
:1006300000C00CEA03069E4221D183004FF00F0C4C
:100640000CFA03F7BC4305FA03FC4CEA040491F8E6
:1006500003C0BCF1280F05D100F1080C08FA0CF812
:10066000C2F8148091F803C0BCF1480F07D100F123
:10067000080C4FF0010808FA0CF8C2F81080401C72
:100680000828CED35460BDE8F0814FF6FF71018099
:10069000022181700421C1707047024600209368D6
:1006A0000B4201D0012000E000207047014688681D
:1006B00080B2704702460020D3680B4201D001206F
:1006C00000E0002070470146C86880B270470161B1
:1006D0007047416170470AB1016100E041617047B4
:1006E000C16070474FF480320A4382618161826148
:1006F00082698269704702460020424B18684FF6B3
:100700008073184040EA021008433E4B186070475F
:100710003D49C8617047F0B50A4600230024002116
:10072000002500F00046B6F1004F02D1354EF169C8
:1007300001E0344E7168C0F3034583B200F4401603
:10074000B6F5401F08D121F070612E4E766826F074
:1007500070662C4F7E6012E000F48016B6F5801FA4
:1007600006D1032606FA05F4A14341F0706106E0C4
:10077000460D360103FA06F6B14341F0706122B12D
:10078000460D360103FA06F6314300F00046B6F195
:10079000004F02D11B4EF16101E01A4E7160F0BDB5
:1007A00030B500228B071C0F0F2303FA04F2154B00
:1007B00008338C1053F824309343124C08348D10B6
:1007C00044F8253023468C1053F824308C07240F2E
:1007D00000FA04F423430B4C08348D1044F8253000
:1007E00030BD0A490860704700080140000C014014
:1007F000001001400014014000180140001C01409D
:10080000002001400000014000002042DC002042A6
:100810000E49086070470D49486070470B49886071
:1008200070474AF6AA200949086070474CF6CC4048
:1008300006490860704701460020044AD2680A420F
:1008400001D0012000E0002070470000003000408F
:10085000DD48006840F00100DB4908600846406858
:10086000DA490840D849486008460068D849084035
:10087000D54908600846006820F4802008600846D2
:10088000406820F4FE0048604FF41F008860704705
:10089000CD49096821F48031CB4A116011460968BD
:1008A00021F480211160B0F5803F03D0B0F5802F96
:1008B0000ED106E0C449096841F48031C24A116092
:1008C00007E0C149096841F4A021BF4A116000E076
:1008D00000BF00BF704710B5014600220023002072
:1008E0004A11012A02D1B84C236806E0022A02D13B
:1008F000B54C236A01E0B44C636A01F01F02012485
:1009000094401C4201D0012000E0002010BD38B509
:10091000002000900024002500BF3120FFF7DBFFFE
:1009200005460098401C00900098B0F5A06F01D0DB
:10093000002DF2D03120FFF7CEFF08B1012400E0F6
:100940000024204638BD014600209F4A106820F050
:10095000F80040EAC100106070479E490860704787
:1009600002460020984B586820F47C1042EA0103AC
:100970001843954B58607047964908667047014682
:100980000020914A506820F00300084350607047EF
:100990008D48406800F00C007047014600208A4AEC
:1009A000506820F0F0000843506070470146002076
:1009B000854A506820F4E060084350607047014663
:1009C0000020814A506820F4605040EAC100506025
:1009D000704729B17C4A527A02437B4B5A7204E039
:1009E000794A527A8243784B5A7270477A49086042
:1009F000704701460020744A506820F44040084384
:100A0000506070470021754A11706F4A82F82010BB
:100A1000012802D0042808D103E001216F4A117097
:100A200004E005216D4A117000E000BF00BF70476F
:100A30006B49086070476449096A0143624A116260
:100A40007047674944390860704730B5002100227B
:100A5000002400235C4D6D6805F00C0121B10429D0
:100A600005D0082923D105E05E4D056022E05D4DEB
:100A700005601FE0544D6D6805F47012524D6D68AD
:100A800005F48034022505EB92421CB9564D5543BE
:100A900005600BE04C4D6D6815F4003F03D0524DDE
:100AA0005543056002E04F4D5543056002E04D4D52
:100AB000056000BF00BF444D6D6805F0F0010909F5
:100AC0004A4D6B5C0568DD4045603F4D6D6805F43F
:100AD000E061090A454D6B5C4568DD4085603A4D33
:100AE0006D6805F46051C90A404D6B5C4568DD4096
:100AF000C560354D6D6805F44041890B3C4D6B5C1C
:100B0000C568B5FBF3F5056130BD29B12E4A5269C0
:100B100002432D4B5A6104E02B4A526982432A4B0F
:100B20005A61704729B1284A92690243264B9A615B
:100B300004E0254A92698243234B9A61704729B1A8
:100B4000214AD2690243204BDA6104E01E4AD2698D
:100B500082431D4BDA61704729B11B4AD2680243B8
:100B6000194BDA6004E0184AD2688243164BDA6007
:100B7000704729B1144A12690243134B1A6104E009
:100B8000114A12698243104B1A6170471449403967
:100B9000086070470F49C86470470B49C8717047B7
:100BA0000948406A40F08070074948627047014632
:100BB0000020054A92680A4201D0012000E000208E
:100BC0007047014988727047001002400000FFF82A
:100BD000FFFFF6FE00004242D800424220100240D1
:100BE0008004424200127A0000093D0014000020F7
:100BF0002400002010B50446BE48844208D10121DB
:100C00008014FFF7A9FF0021A014FFF7A5FF16E04D
:100C1000B948844208D101210014FFF7AAFF00213E
:100C20002014FFF7A6FF0AE0B448844207D101214F
:100C3000C013FFF79EFF0021E013FFF79AFF10BDDE
:100C400010B50022028802F441520B884C882343DD
:100C50008C882343CC8823430C8923434C8923432A
:100C60008C892343CC8923431A430280838B4FF220
:100C7000FF74234083830B8A038210BD2DE9F04F5C
:100C800085B005460C464FF0000902274FF00008DA
:100C90004FF0010B0026B246A88B4FF240010840EE
:100CA000A88302202884B5F81C90A068022801D1EE
:100CB00000BF38E0A08810B94FF0010B01E04FF001
:100CC000020B8D48854200D100E000BF6846FFF767
:100CD000BCFEDDF800A0E088B0F5007F0AD14FEA45
:100CE0001A2000EB80004000A168B0FBF1F0401D2D
:100CF00086B20BE04FEA4B10BAFBF0F000EB80003D
:100D00004000A168B0FBF1F0401D86B20A20B6FB9E
:100D1000F0F606F00108A6EB0800C0F34F074FF607
:100D2000FF7000EA0828022F01DBFF2F02DD0227F7
:100D30004FF00008E08840EA080038432884A08883
:100D4000A1890843618808432188084340F4006072
:100D500040EA0909A5F81C9005B0BDE8F08F002114
:100D6000018041808180C180018141818181C18177
:100D70000721018270470021018041808180C1806C
:100D80000221816000218181704721B1028842F0F7
:100D90004002028004E002884FF6BF731A400280CE
:100DA000704721B1828B42F48062828304E0828B9F
:100DB0004FF6FF331A408283704730B5002400237A
:100DC0000C110125A540ABB21AB185881D43858061
:100DD00002E085889D43858030BD1AB183880B432E
:100DE000838002E083888B438380704781817047D2
:100DF000014688897047A1F57E42FF3A04D00288F7
:100E000042F48072028004E002884FF6FF631A40C9
:100E10000280704721B1828842F00402828004E09F
:100E200082884FF6FB731A408280704702884FF227
:100E3000FF731A40028002880A43028070470188CB
:100E400041F480510180704721B1028842F4005280
:100E5000028004E002884DF6FF731A40028070475A
:100E600002460020012901D0108B00E0908A7047D3
:100E70000146088A7047B1F5804F04D1028842F4D8
:100E80008042028004E002884BF6FF731A40028021
:100E900070470246002013890B4201D0012000E078
:100EA00000207047CA4302817047F0B50246002017
:100EB00000240023002501F00F070126BE40B4B234
:100EC0000B1101269E40B3B2968806EA03051689E7
:100ED000264202D00DB1012000E00020F0BD10B587
:100EE000002201F00F040123A3409AB2D3430381EF
:100EF00010BD00000030014000380040003C0040C0
:100F000010B50446FE48844208D10121C014FFF701
:100F100023FE0021E014FFF71FFEC4E0B4F1804F70
:100F200008D101210846FFF724FE00210120FFF728
:100F300020FEB8E0F348844208D101210220FFF7E7
:100F400018FE00210220FFF714FEACE0EE488442B8
:100F500008D101210420FFF70CFE00210420FFF737
:100F600008FEA0E0E948844208D101210820FFF7EB
:100F700000FE00210820FFF7FCFD94E0E4488442D5
:100F800008D101211020FFF7F4FD00211020FFF708
:100F9000F0FD88E0DF48844208D101212020FFF7DE
:100FA000E8FD00212020FFF7E4FD7CE0DA488442E0
:100FB00008D101214014FFF7CFFD00216014FFF795
:100FC000CBFD70E0D548844209D10121C804FFF768
:100FD000C3FD00214FF40020FFF7BEFD63E0D048C1
:100FE000844209D101210805FFF7B6FD00214FF425
:100FF0008010FFF7B1FD56E0CA48844209D10121B3
:101000004805FFF7A9FD00214FF40010FFF7A4FDEC
:1010100049E0C548844208D101214020FFF7A9FDDD
:1010200000214020FFF7A5FD3DE0C048844208D1E3
:1010300001218020FFF79DFD00218020FFF799FD11
:1010400031E0BB48844208D101218015FFF791FDB2
:101050000021A015FFF78DFD25E0B648844209D197
:1010600001210804FFF778FD00214FF48030FFF7DD
:1010700073FD18E0B048844209D101214804FFF70C
:101080006BFD00214FF40030FFF766FD0BE0AB482D
:10109000844208D101218804FFF75EFD00214FF44E
:1010A0008020FFF759FD10BD00220288944B984222
:1010B0000ED0994B98420BD0B0F1804F08D0914B95
:1010C000984205D0904B984202D0904B984204D160
:1010D0004FF68F731A404B881A438D4B984207D0B6
:1010E0008C4B984204D04FF6FF431A40CB881A43EA
:1010F00002808B8883850B880385814B98420BD0B7
:10110000854B984208D08B4B984205D08A4B984229
:1011100002D08A4B984201D10B7A03860123838245
:10112000704770B5002400220023058C4FF6FE7630
:1011300035400584028C8388048B4FF68F752C40D4
:10114000B51E2C400D882C43751E2A400D892A435C
:101150004D882A436A4DA8420BD06F4DA84208D053
:10116000744DA84205D0744DA84202D0734DA842D8
:1011700013D14FF6F7752A404D892A434FF6FB7578
:101180002A408D882A434FF6FF652B404FF6FF55C6
:101190002B408D892B43CD892B4383800483CD88BD
:1011A0008586028470BD70B5002400220023058C62
:1011B0004FF6EF7635400584028C8388048B48F621
:1011C000FF752C404FF6FF452C400D884FF6FF76FB
:1011D00006EA05252C434FF6DF752A400D8906EAFD
:1011E00005152A434D8806EA05152A43444DA842B1
:1011F00002D0494DA8421DD14FF67F752A404D8936
:101200004FF6FF7606EA05152A434FF6BF752A40CA
:101210008D8806EA05152A434FF6FF352B404FF21D
:10122000FF752B408D8906EA85052B43CD8906EA9B
:1012300085052B4383800483CD880587028470BD98
:1012400070B5002400220023058C4FF6FF66354060
:101250000584028C8388848B4FF68F752C404FF663
:10126000FC752C400D882C434FF6FF552A400D8904
:101270004FF6FF7606EA05252A434D8806EA05253E
:101280002A431F4DA84202D0234DA8421DD14FF240
:10129000FF752A404D894FF6FF7606EA05252A4359
:1012A0004FF6FF352A408D8806EA05252A434EF67B
:1012B000FF752B404DF6FF752B408D8906EA05150D
:1012C0002B43CD8906EA05152B4383808483CD8883
:1012D0008587028470BD70B5002200230024058C30
:1012E0004EF6FF7635400584038C8488828B48F661
:1012F000FF752A404FF6FF452A400D8820E0000088
:10130000002C01400004004000080040000C004098
:10131000001000400014004000340140004C014027
:10132000005001400054014000180040001C0040E3
:1013300000200040004001400044014000480140BE
:101340004FF6FF7606EA05252A434DF6FF752B403A
:101350000D8906EA05352B434D8806EA05352B43F2
:10136000FA4DA84202D0FA4DA84208D14BF6FF75BB
:101370002C408D894FF6FF7606EA85152C43848034
:101380008283CD88A0F84050038470BD828B4FF2D9
:10139000FF331A408283828B4FF6FF7303EA0123E7
:1013A0001A4382837047F0B50C461546002200218F
:1013B0000026078C4EF6FF7C07EA0C070784828B19
:1013C000018C4FF6FF7707EA043640F6FF473A40B4
:1013D0004FF6FF7707EA05273A434FF6FF7707EA0C
:1013E00003373A43D94FB8420ED0D94FB8420BD049
:1013F000B0F1804F08D0D74FB84205D0D64FB84291
:1014000002D0D64FB84206D14DF6FF77394046F4A8
:101410008057394305E047F6FF57394044F4805779
:10142000394382830184F0BD828B4FF6F3731A40F7
:101430008283828B0A4382837047F0B50C4615463F
:10144000002200210026078C4FF6FF6C07EA0C07EC
:101450000784828B018C4FF6FF7707EA04264FF64C
:101460000C773A404FF6FF7707EA03172F433A43CA
:10147000B64FB8420ED0B64FB8420BD0B0F1804F45
:1014800008D0B44FB84205D0B34FB84202D0B34FE2
:10149000B84206D14FF6FF57394046F480773943BA
:1014A00005E04FF2FF57394044F480773943828397
:1014B0000184F0BD028B4FF2FF331A400283028B8E
:1014C0004FF6FF7303EA01231A4302837047F0B516
:1014D0000C461546002200210026078C4FF6EF7CB3
:1014E00007EA0C070784028B018C4FF6FF7707EAA7
:1014F000041640F6FF473A404FF6FF7707EA0337F6
:101500003A434FF6FF7707EA05273A438F4FB84231
:101510000ED08F4FB8420BD0B0F1804F08D08D4F16
:10152000B84205D08C4FB84202D08C4FB84206D199
:101530004FF6DF77394046F01007394305E04FF6A4
:101540005F77394044F01007394302830184F0BDCE
:10155000028B4FF6F3731A400283028B0A43028315
:101560007047F0B50C46154600220021068C4FF658
:10157000FE773E400684028B018C4FF60C7632409B
:101580007E1C06EA03162E433243704EB0420ED044
:101590006F4EB0420BD0B0F1804F08D06D4EB042CC
:1015A00005D06D4EB04202D06C4EB04206D14FF61F
:1015B000FD76314044F00106314305E04FF6F57603
:1015C000314044F00106314302830184F0BD70B51F
:1015D00005460C465D4885420ED05D4885420BD0DD
:1015E000B5F1804F08D05B48854205D05A48854206
:1015F00002D05A48854200D100E000BF208850B98F
:101600002389A28861882846FFF7ABFFE188284636
:10161000FFF79EFF25E0208804280AD12389A288AD
:1016200061882846FFF753FFE1882846FFF742FF0D
:1016300017E0208808280AD12389A28861882846D3
:10164000FFF7FBFEE1882846FFF7EEFE09E023895D
:10165000A28861882846FFF7A6FEE1882846FFF7A2
:1016600095FE70BD2DE9F04105460C460026012788
:10167000608808B9022600E00026A088012801D170
:10168000022700E001272088A0B92389A288618869
:101690002846FFF766FFE1882846FFF759FF2389B0
:1016A0003A4631462846FFF712FFE1882846FFF701
:1016B00001FF13E02389A28861882846FFF707FF0E
:1016C000E1882846FFF7F6FE23893A463146284648
:1016D000FFF747FFE1882846FFF73AFFBDE8F081B2
:1016E0000A884B881A438B881A43CB881A430B8984
:1016F0001A434B891A438B891A43A0F84420704738
:101700004FF6FF71818000210180C180418001720C
:1017100070470021018041808180C1800181418129
:101720008181C18170470021018041800121818038
:101730000021C180018170470021018041808180AA
:10174000C18001814181818170470000002C0140EE
:10175000003401400004004000080040000C00403C
:1017600021B1028842F00102028004E002884FF6B3
:10177000FE731A400280704731B1B0F8442042F441
:101780000042A0F8442005E0B0F84420C2F30E0265
:10179000A0F8442070471AB183890B43838102E08B
:1017A00083898B43838170478182704741EA0203BA
:1017B000A0F8483070471AB183890B43838102E057
:1017C00083898B438381704701894FF6F8721140FA
:1017D000018170470A46002101894FF68F73194035
:1017E00011430181704730B504460D462946204615
:1017F000FFF7F0FF208940F00700208130BD2DE980
:10180000F04104460D4616461F46602D06D13B4664
:10181000012231462046FFF75AFE05E03B460122F1
:1018200031462046FFF79DFE29462046FFF7D2FFAE
:10183000208940F007002081BDE8F08130B50C46DA
:1018400000210189C9B24FF6FF7505EA032515434A
:1018500025432943018130BD2DE9F04105460E465F
:1018600017469846002443463A4631462846FFF735
:10187000E5FF2C894FF6F870044044F007044FF65A
:101880008F70044044F070042C81BDE8F081F0B505
:1018900004460D4616461F463B463246294620461C
:1018A000FFF7CCFF208940F480402081F0BD018506
:1018B000828270470A46002101884FF68F731940D3
:1018C000114301807047F0B50C4615461E460021B5
:1018D000002200230189028B038C4FF6F8773940F0
:1018E00021434FF6FC473A4040F201173A434FF686
:1018F000DD773B404FF6FF7707EA06172F433B4360
:10190000018102830384F0BD0A460021018B4FF65A
:101910008F7319401143018370470A460021018BE0
:1019200048F6FF7319404FF6FF7303EA0223194389
:10193000018370470A460021818B4FF68F7319404F
:101940001143818370470A460021818B48F6FF735B
:1019500019404FF6FF7303EA02231943818370474E
:1019600021B1028842F08002028004E002884FF632
:101970007F731A400280704721B1828842F00402CE
:10198000828004E082884FF6FB731A4082807047A1
:1019900021B1828842F00802828004E082884FF6FA
:1019A000F7731A408280704721B1828842F00102A9
:1019B000828004E082884FF6FE731A40828070476E
:1019C0000A460021018B4FF6F7731940114301833A
:1019D00070470A460021018B4FF2FF7319404FF602
:1019E000FF7303EA02231943018370470A4600216B
:1019F000818B4FF6F77319401143818370470A4674
:101A00000021818B4FF2FF7319404FF6FF7303EAF9
:101A100002231943818370470A460021018B4FF648
:101A2000FB7319401143018370470A460021018B63
:101A30004FF6FF3319404FF6FF7303EA02231943B1
:101A4000018370470A460021818B4FF6FB731940D2
:101A50001143818370470A460021818B4FF6FF3383
:101A600019404FF6FF7303EA02231943818370473D
:101A70000A460021018B4FF67F7319401143018301
:101A800070470A460021018BC1F30E014FF6FF7328
:101A900003EA02231943018370470A460021818B20
:101AA0004FF67F7319401143818370470A46002126
:101AB000818BC1F30E014FF6FF7303EA0223194332
:101AC000818370470A460021018C4FF6FD7319404F
:101AD0001143018470470A460021018C4FF6F773C9
:101AE00019401143018470470A460021018C4FF6CA
:101AF000DF7319404FF6FF7303EA021319430184A1
:101B000070470A460021018C4FF67F7319404FF64B
:101B1000FF7303EA02131943018470470A46002148
:101B2000018C4FF6FF5319404FF6FF7303EA02236F
:101B30001943018470470A460021018C4FF2FF735C
:101B400019404FF6FF7303EA0223194301847047DB
:101B50000A460021018C4DF6FF7319404FF6FF73C2
:101B600003EA023319430184704730B5002301248E
:101B70008C40A3B2048C9C430484048C02FA01F5CB
:101B8000ADB22C43048430BD30B5002304248C4016
:101B9000A3B2048C9C430484048C02FA01F5ADB218
:101BA0002C43048430BD70B5034600200024184641
:101BB000183001258D40ACB21D8CA5431D8409B1A0
:101BC000082909D100EB6100056825F07005056062
:101BD0000568154305600EE00D1FC5F34E0528444A
:101BE000056825F4E045056005684FF6FF7606EACE
:101BF00002263543056070BD21B1028842F0020221
:101C0000028004E002884FF6FD731A40028070479C
:101C100021B1028842F00402028004E002884FF6FB
:101C2000FB731A400280704721B1828842F0800223
:101C3000828004E082884FF67F731A40828070476A
:101C400002884FF6F7731A40028002880A43028026
:101C5000704782884FF68F731A40828082880A43C9
:101C60008280704702894FF6F8731A400281028918
:101C70000A430281704702894FF67F731A4002813E
:101C800002890A43028170478184704781857047C9
:101C9000818670470187704781877047A0F84010A0
:101CA000704702884FF6FF431A40028002880A43B9
:101CB000028070470146888E70470146088F704742
:101CC0000146888F70470146B1F8400070470146D1
:101CD000888C70470146088D704702460020138AA1
:101CE0000B4201D0012000E000207047CA4302826D
:101CF000704730B50246002000230024158A05EA0B
:101D00000103958905EA010413B10CB1012000E03B
:101D1000002030BDCA4302827047000010B504465F
:101D2000FB48844209D101218803FEF715FF0021F9
:101D30004FF48040FEF710FF32E0F648844209D1AC
:101D400001214804FEF715FF00214FF40030FEF793
:101D500010FF25E0F048844209D101218804FEF7F4
:101D600008FF00214FF48020FEF703FF18E0EB4846
:101D7000844209D10121C804FEF7FBFE00214FF483
:101D80000020FEF7F6FE0BE0E548844208D1012171
:101D90000805FEF7EEFE00214FF48010FEF7E9FE85
:101DA00010BD2DE9F04786B005460E460024A24638
:101DB00000BFA1460027B08900B100BF2F462C8A82
:101DC0004CF6FF700440F08804432C82AC894EF638
:101DD000F3100440B08831890843718908430443F3
:101DE000AC81AC8A4FF6FF400440B0890443AC821A
:101DF00001A8FEF72AFEC648874202D1DDF810A0EE
:101E000001E0DDF80CA0A88910F4004F08D00AEB1F
:101E1000CA0000EB0A1031684900B0FBF1F807E096
:101E20000AEBCA0000EB0A1031688900B0FBF1F838
:101E30006420B8FBF0F004012009642101FB108943
:101E4000A88910F4004F08D0322000EBC900B0FB85
:101E5000F1F000F00700044308E0322000EB091025
:101E60006421B0FBF1F000F00F0004432C8106B0B8
:101E7000BDE8F0874FF41651016000218180C180D8
:101E800001810C21418100218181704710B50246FA
:101E90000020108A4FF2FF0318400B884C88234320
:101EA0008C882343CC8823431843108210BD002123
:101EB000018041808180C180704721B1828942F4D4
:101EC0000052828104E082894DF6FF731A408281BC
:101ED0007047F0B503460024002600250020A1F538
:101EE00010676A3F00D100BF1846C1F3421401F0E9
:101EF0001F06012707FA06F5012C01D10C3004E07A
:101F0000022C01D1103000E014301AB107682F43C1
:101F1000076002E00768AF430760F0BD1AB1838A2B
:101F20000B43838202E0838A8B4383827047028A59
:101F30004FF6F0731A400282028A0A430282704707
:101F400082894FF2FF731A40828182890A4382811B
:101F5000704721B1828942F00202828104E08289C5
:101F60004FF6FD731A4082817047028A4FF6DF7385
:101F70001A400282028A0A430282704721B1028A11
:101F800042F48042028204E0028A4BF6FF731A4058
:101F900002827047C1F30802828070470146888838
:101FA000C0F308007047818941F0010181817047C9
:101FB000028BD2B20283028B42EA01220283704773
:101FC000028B02F47F420283028B0A430283704732
:101FD00021B1828A42F02002828204E0828A4FF696
:101FE000DF731A408282704721B1828A42F0100268
:101FF000828204E0828A4FF6EF731A408282704731
:1020000021B1828A42F00802828204E0828A4FF67D
:10201000F7731A408282704721B1828942F40042EC
:10202000828103E08289C2F30E028281704721B16E
:10203000828A42F40062828204E0828A4FF2FF7355
:102040001A4082827047828A4FF6FB731A4082825E
:10205000828A0A438282704721B1828A42F0020258
:10206000828204E0828A4FF6FD731A4082827047B2
:1020700002460020B1F5007F00D100BF13880B425B
:1020800001D0012000E00020704701F40072B2F599
:10209000007F00D100BFCA430280704770B502467E
:1020A0000024002300250020A1F510666A3E00D11F
:1020B00000BFC1F3421501F01F03012606FA03F326
:1020C000012D02D19689334006E0022D02D1168AF5
:1020D000334001E0968A33400C12012606FA04F4DC
:1020E0001688344013B10CB1012000E0002070BD0F
:1020F00010B500220023A1F510646A3C00D100BF96
:102100000A1201249440A3B2DC43048010BD0000F5
:10211000003801400044004000480040004C0040AE
:102120000050004000BFBF2080F31188BFF34F8FE5
:10213000BFF36F8F00BF00BFFEE7001F4FF080733B
:102140000360001F21F001030360001F2D4B03609B
:10215000143802602038704700204FF0E0210861F9
:1021600088614AF6DF30486107200861704710B582
:102170002548006840F47F0023490860084600684D
:1021800040F07F400860FFF7E7FF00201F4908602C
:10219000FDF7EAFF002010BD704700BFBF2080F3AD
:1021A0001188BFF34F8FBFF36F8F00BF17480068D0
:1021B000401C16490860704714480068401E1349C7
:1021C00008600846006820B9002080F3118800BF2D
:1021D00000BF704710B500BFBF2080F31188BFF368
:1021E0004F8FBFF36F8F00BF00F042FA20B14FF066
:1021F000805005491C39086000BF002080F3118819
:1022000000BF10BD2521000820ED00E028000020BF
:10221000434A22F00700434A10600022414B5A60B3
:1022200043F6F872404B5A6000221A60014643F6AA
:10223000F8724A601A460A6070472DE9F041044678
:102240004FF0000800F05DFB3848006820B9FFF748
:10225000DFFF01203549086044B1083414F0070F4E
:1022600004D004F00700C0F108000444002C32D070
:1022700043F6F87084422ED22A4F3846056801E0B2
:102280002F462D686868A04202D228680028F7D13E
:10229000254885421FD0386800F108082868386052
:1022A0006868001B102810D92E196868001B706020
:1022B0006C6071681B4800E00068026852688A42DE
:1022C000FAD302683260066000BF1949686809687D
:1022D000081A1749086000F049FA4046BDE8F08145
:1022E00070B506463546B6B1083D2C4600F009FBF0
:1022F00061680C4800E00068026852688A42FAD3BC
:102300000268226004600A49606809680844084954
:10231000086000F02BFA70BD0548006870477047F0
:10232000E4000020340000203C00002030000020A9
:102330002C00002000F1080141604FF0FF31816066
:1023400000F10801C16001610021016070470021B6
:102350000161704742684A6093688B609368596076
:102360009160086103685B1C0360704710B502460A
:102370000B685C1C01D1106907E002F1080000E065
:102380004068446824689C42FAD944684C604C68B0
:10239000A160886041600A611468641C146010BD0B
:1023A00001460A69D1E901309860D1E9010358601A
:1023B0005068884201D18868506000200861106828
:1023C000401E10601068704710B5002407E004EB51
:1023D0008401FE4A02EB8100FFF7ACFF641C082C6D
:1023E000F5D3FB48FFF7A6FFFA48FFF7A3FFFA482B
:1023F000FFF7A0FFF948FFF79DFFF948FFF79AFFA5
:10240000F348F8490860F348F749086010BD10B573
:102410000446FFF7C2FEF5480068401CF349086017
:10242000F348006840B9F248046008460068012893
:102430000DD1FFF7C9FF0AE0EE48006838B9EC4853
:102440000068C06AE16A884201D8E9480460EA4845
:102450000068401CE849086094F82C10012088406E
:10246000E64909680843E5490860E16A01EB810132
:10247000D64A02EB8100211DFFF76CFFFFF79CFE9F
:10248000DC48006868B1DA480068C06AE16A8842DE
:1024900007D24FF08050DA490860BFF34F8FBFF387
:1024A0006F8F10BD2DE9FF5F80460E469146DDE936
:1024B0000E7A109CA9F10100216B01EB800B2BF02F
:1024C000070B86B1002507E0715D04F1340041552A
:1024D000705D00B902E06D1C102DF5D300BF002126
:1024E0004320015502E0002084F83400082F00D377
:1024F0000727E762201DFFF72AFF04F11800FFF706
:1025000026FF2461C7F10800A061646200206064B6
:1025100084F8480041465846039AFFF70EFE2060B3
:10252000BAF1000F01D0CAF80040BDE8FF9F2DE9C5
:10253000FF4F85B0804689461746DDE912ABB800EB
:10254000FFF77BFE064656B14C20FFF776FE0446A9
:102550000CB1266304E03046FFF7C2FE00E0002421
:102560007CB10020CDE900ABCDE902403A464946B6
:102570004046089BFFF796FF2046FFF748FF0125DE
:1025800001E04FF0FF35284609B0BDE8F08F9549CE
:102590000968096809B9012100E0002121B14FF063
:1025A000FF31984A116006E08E490968C968C86819
:1025B000944A41681160704710B50446206BFFF7DC
:1025C0008FFE2046FFF78CFE10BD70B50546FFF765
:1025D000E4FD15B98648006800E028460446201D41
:1025E000FFF7DEFE78B9E06A00EB8000774951F82A
:1025F000200040B994F82C10012088407F490968D8
:1026000081437E480160A06A18B104F11800FFF709
:10261000C7FE79480068401C774908607448006824
:10262000844209D1211D6D48FFF794FE7648006869
:10263000401C7549086009E06C480068401E6B4901
:1026400008602046FFF7B8FFFFF7A1FFFFF7B4FDD2
:102650006848006858B166480068844207D14FF066
:10266000805067490860BFF34F8FBFF36F8F70BD15
:102670002DE9F041002765480068002868D16448CA
:102680000068451C624805608DB95648D0F8008046
:1026900055480068534908605348C0F800805D48B9
:1026A0000068401C5B490860FFF771FF00BF554898
:1026B000006885423BD300BF4A480068006808B9FB
:1026C000012000E0002020B14FF0FF304D490860AC
:1026D0002CE044480068C068C4686668B54202D20D
:1026E0004848066022E0201DFFF75AFEA06A18B194
:1026F00004F11800FFF754FE94F82C1001208840D4
:102700003E49096808433D490860E16A01EB8101DF
:102710002E4A02EB8100211DFFF71CFE3449E06ABE
:102720000968C96A8842C7D30127C5E700BF304896
:102730000068C06A00EB8000244951F8200001289D
:1027400000D901273448006808B901F066FA06E0AC
:1027500031480068401C3049086001F05EFA2F489B
:10276000006800B101273846BDE8F08170B500244B
:102770000026FFF712FD25480068401E2349086027
:102780000846006800287AD118480068002876D0EA
:102790004FE01148C068C46804F11800FFF700FE5C
:1027A000201DFFF7FDFD94F82C10012088401349EF
:1027B0000968084311490860E16A01EB8101034A95
:1027C00002EB8100211DFFF7C5FD29E0DC40002060
:1027D0007C41002090410020A4410020B84100200D
:1027E000CC410020780000207C0000204C0000201C
:1027F0004400002058000020680000205400002001
:1028000004ED00E06C00002048000020740000206F
:1028100050000020640000205C00002060000020C8
:10282000F849E06A0968C96A884202D30120F6497A
:102830000860F648006808B9012000E00020002880
:10284000A7D00CB1FFF7A3FEF148056865B100BF42
:10285000FFF70EFF10B10120EB4908606D1E002D3F
:10286000F6D10020EA490860E748006838B101263F
:102870003007E8490860BFF34F8FBFF36F8FFFF752
:102880009BFC304670BD2DE9F04105460E46E248FE
:102890000768DC480068001DFFF782FD50B9D94881
:1028A000006890F82C1001208840DC4909688143B9
:1028B000DA480160681C07D136B1D2480168091DA9
:1028C000D748FFF747FD1AE07C19CE4800684460FE
:1028D000BC4207D2CB480168091DD2480068FFF707
:1028E00045FD0CE0C7480168091DCF480068FFF7A7
:1028F0003DFDCE480068844201D2CC480460BDE86A
:10290000F081CB480068401CC949086070472DE938
:10291000F047044688464FF00009FFF7F2FFBE4833
:102920000668206800EB08052068B04207D92068D7
:10293000A8420BD9B54209D94FF0010906E0206839
:10294000A84201D8B54201D94FF001092560B9F17B
:10295000000F03D0A81B0021FFF795FFFFF706FF2C
:1029600007463FB94FF08050AA490860BFF34F8F28
:10297000BFF36F8FBDE8F08770B50446002544B102
:10298000FFF7BFFF00212046FFF77DFFFFF7EEFEB8
:1029900005463DB94FF080509E490860BFF34F8F08
:1029A000BFF36F8F70BD70B50446FFF7F6FB14B927
:1029B0009448006800E020460646F56AFFF7FCFBF5
:1029C000284670BD70B5024600BFBF25EFF31184E5
:1029D00085F31188BFF34F8FBFF36F8F00BF214680
:1029E00012B9884C246800E014462346D86A00BF18
:1029F00081F3118800BF70BD2DE9F04780460D4678
:102A00004FF00009082D00D30725FFF7C6FBB8F1EA
:102A1000000F02D17B48006800E040460446E66AA9
:102A2000AE4251D0B5420BD97648006884420DD0F1
:102A300074480068C06AA84208D84FF0010905E050
:102A400070480068844201D14FF00109E76AE562ED
:102A5000A06910F0004F02D1C5F10800A06107EB9A
:102A60008701744A02EB81016069884201D101202B
:102A700000E00020E0B1201DFFF792FC30B90120FA
:102A8000B8406649096881436448016094F82C1095
:102A90000120884061490968084360490860E16A8B
:102AA00001EB8101634A02EB8100211DFFF752FC1B
:102AB000B9F1000F07D04FF0805056490860BFF3BE
:102AC0004F8FBFF36F8F00BFFFF776FBBDE8F08736
:102AD0005748006818B101204B4908601DE00020EC
:102AE000494908604D480068B0FA80F0C0F11F0104
:102AF00001EB81024F4B03EB820042685268426057
:102B000000F108024368934202D142685268426071
:102B10004268D2683B4B1A6000BF704770B50546EB
:102B2000FFF73BFB15B93748006800E0284604462C
:102B3000201DFFF735FC78B9E06A00EB80003D49C5
:102B400051F8200040B994F82C10012088403349F6
:102B50000968814331480160A06A18B104F1180086
:102B6000FFF71EFC211D2E48FFF7F4FB94F84800E8
:102B7000012802D1002084F84800FFF71DFB2E48F1
:102B8000006828B1FFF709FBFFF701FDFFF714FB11
:102B90001C480068844217D12748006840B14FF0B4
:102BA00080501C490860BFF34F8FBFF36F8F0BE05D
:102BB0001B48006821490968884203D10020114957
:102BC000086001E0FFF784FF70BD10B501460020EA
:102BD0000A46134C5369A34201D1012300E00023AC
:102BE00073B10A4C936AA34201D1012300E0002390
:102BF00033B9936A0BB9012300E0002303B101202C
:102C000010BD00004400002060000020A44100200E
:102C10005C00002004ED00E0500000205400002083
:102C2000CC4100207C000020780000206C000020B7
:102C300074000020DC400020580000204C000020E0
:102C400070B505462C46FE48006884422BD054B32C
:102C5000FFF7A3FA2046FFF7B8FF10B3201DFFF7D8
:102C60009FFB94F82C1001208840F649096808431E
:102C7000F4490860E16A01EB8101F34A02EB81004B
:102C8000211DFFF767FBEE49E06A0968C96A8842BF
:102C900007D34FF08050ED490860BFF34F8FBFF36B
:102CA0006F8FFFF789FA70BD2DE9F04106460027C6
:102CB000344600BFBF21EFF3118081F31188BFF3C9
:102CC0004F8FBFF36F8F00BF05462046FFF77DFF94
:102CD00020B3DF480068E0B9D949E06A0968C96AE9
:102CE000884200D30127201DFFF75AFB94F82C10CF
:102CF00001208840D34909680843D2490860E16A45
:102D000001EB8101D04A02EB8100211DFFF722FB7C
:102D100004E004F11801CF48FFF71CFB00BF85F366
:102D2000118800BF3846BDE8F08110B516E0FFF706
:102D300034FAC948C068C468201DFFF731FBC74892
:102D40000068401EC5490860C5480068401EC44967
:102D50000860FFF731FA2046FFF72EFCC0480068F4
:102D60000028E4D110BD00BFFFF7DFFFB6480068C0
:102D70000128F9D94FF08050B4490860BFF34F8F54
:102D8000BFF36F8FF0E71CB5B64800210B468022D9
:102D9000CDE90010B4A1B648FFF7C9FB0446012CE9
:102DA00014D100BFBF2080F31188BFF34F8FBFF352
:102DB0006F8F00BF4FF0FF30AE4908600120AE4971
:102DC00008600020AD490860FFF7D1F91CBD10B5BF
:102DD00000BFBF2080F31188BFF34F8FBFF36F8F09
:102DE00000BF0020A4490860FFF7D6F910BDA34931
:102DF000086870470021A14A10687047974800682A
:102E00007047014611B98E48006800E00846024646
:102E100002F13400704770B505460C4688480168D9
:102E200018312846FFF7A2FA01212046FFF72BFDB3
:102E300070BD70B506460C46154644F0004080490A
:102E4000096888617E48016818313046FFF782FAC8
:102E500001212846FFF717FD70BD70B50646F068E2
:102E6000C46804F11800FFF79BFA79480068A8B914
:102E7000201DFFF795FA94F82C1001208840714925
:102E8000096808436F490860E16A01EB81016E4AF5
:102E900002EB8100211DFFF75DFA04E004F1180147
:102EA0006C48FFF757FA6649E06A0968C96A8842C0
:102EB00004D9012501207249086000E00025284658
:102EC00070BD70B505460E4646F000402860EC68BF
:102ED0002846FFF765FA201DFFF762FA94F82C10D8
:102EE0000120884057490968084356490860E16A4B
:102EF00001EB8101544A02EB8100211DFFF72AFA00
:102F00004F49E06A0968C96A884202D901205C49D0
:102F1000086070BD10B50446FFF73FF959480068D6
:102F20002060564800686060FFF746F910BD5549BB
:102F300009680160514909684160704770B50646EB
:102F40000C46FFF72AF94D4802687068131A20688A
:102F5000401C01D1002517E04A49306809688842C1
:102F600004D07068904201D801250DE02068984295
:102F700007D92068C01A20603046FFF7D8FF002527
:102F800002E0002020600125FFF716F9284670BDF9
:102F900001203B4908607047294909688869284928
:102FA0000968C96AC1F10801254A12689161704730
:102FB00070B506460D46FFF7F0F821480068406CF2
:102FC00088B901201E49096881F848005DB10121D6
:102FD0002846FFF758FC4FF080501C490860BFF3AB
:102FE0004F8FBFF36F8FFFF7E7F8FFF7D6F814485E
:102FF0000068446C4CB126B100201149096848644E
:1030000003E0601E0E490968486400200C49096805
:1030100081F84800FFF7D0F8204670BD2DE9F04157
:103020000746884614461D46FFF7B7F8044800686F
:1030300090F8480002283ED00149096824E00000C9
:103040004400002054000020DC40002004ED00E09B
:1030500074000020A4410020B84100204C00002052
:10306000480000207000002049444C45000000004A
:10307000672D00086C000020580000205000002040
:10308000600000206400002001F14400496CB94355
:1030900001600120B249096881F848005DB1012151
:1030A0002846FFF7F0FB4FF08050AE490860BFF3B1
:1030B0004F8FBFF36F8FFFF77FF8FFF76EF81CB1EC
:1030C000A7480068406C2060A548006890F8480058
:1030D000022801D0002608E0A149096801F1440056
:1030E000496C21EA08010160012600209C49096819
:1030F00081F84800FFF760F83046BDE8F0812DE91F
:10310000F04781460D4616461F464FF0010A4C46D1
:10311000FFF743F80FB1606C386094F848800220E4
:1031200084F84800052E17D2DFE806F01503070BD8
:103130000D00606C284360640FE0606C401C6064AC
:103140000BE0656409E0B8F1020F01D0656401E0AD
:103150004FF0000A01E000E000BF00BFB8F1010F2E
:1031600022D1201DFFF71CF994F82C100120884073
:103170007D49096808437C490860E16A01EB8101E7
:103180007A4A02EB8100211DFFF7E4F87449E06AF6
:103190000968C96A884207D94FF0805071490860B0
:1031A000BFF34F8FBFF36F8FFFF706F85046BDE8B0
:1031B000F0872DE9F84F83460D4616461F46DDF889
:1031C00028A0012000905C4600BFBF21EFF31180D2
:1031D00081F31188BFF34F8FBFF36F8F00BF81461C
:1031E0000FB1606C386094F84880022084F8480081
:1031F000052E17D2DFE806F01503070B0D00606CF3
:10320000284360640FE0606C401C60640BE0656400
:1032100009E0B8F1020F01D0656401E000200090E0
:1032200001E000E000BF00BFB8F1010F2CD1504811
:103230000068A8B9201DFFF7B3F894F82C100120FE
:10324000884049490968084347490860E16A01EB39
:103250008101464A02EB8100211DFFF77BF804E063
:1032600004F118014348FFF775F83D49E06A096821
:10327000C96A884208D9BAF1000F02D00120CAF801
:10328000000001203C49086000BF89F3118800BF9D
:103290000098BDE8F88F2DE9F04105460E462C4612
:1032A00000BFBF21EFF3118081F31188BFF34F8F6F
:1032B000BFF36F8F00BF074694F84880022084F860
:1032C0004800606C401C6064B8F1010F29D12848A7
:1032D0000068A8B9201DFFF763F894F82C100120AE
:1032E00088402149096808431F490860E16A01EBE9
:1032F00081011E4A02EB8100211DFFF72BF804E03B
:1033000004F118011B48FFF725F81549E06A096820
:10331000C96A884205D90EB10120306001201649E2
:10332000086000BF87F3118800BFBDE8F08170B569
:10333000054615B90A48006800E028460646FEF72B
:103340002CFF96F84800022804D1002086F8480097
:10335000012400E00024FEF72FFF204670BD00008E
:103360004400002004ED00E054000020DC40002078
:1033700074000020A4410020600000200146F14AB2
:1033800012688A4203D3EF4A1268501A04E0EE4AE8
:10339000521AEC4B1B68D0187047EA480068704717
:1033A00070B505460E46E748A0F80C51002405E02C
:1033B000315DE4480C300155601C84B2AC42F7DB4F
:1033C000012240F22661E148FEF783FD70BD70B531
:1033D00004460D4616465521DA4880F88C10AA217D
:1033E00080F88D1080F88E4080F88F5080F89060C3
:1033F00090F88E1090F88F004840D24991F89010C4
:103400004140D04880F8911000F18C010620FFF770
:10341000C7FF70BD0121CB4880F81011002180F852
:103420001111A0F81211704700B50246C548B0F856
:10343000160108B9FFF7EEFFC24890F8100100F03E
:103440000F000C2873D2DFE800F0720615243E58F6
:10345000738DA7C1DAF5552A07D10221B94880F842
:1034600010110A21A0F8161103E00021B548A0F8B8
:1034700016110EE1AA2A07D10321B24880F81011D3
:103480000A21A0F8161103E00021AE48A0F8161199
:10349000FFE00421AB4880F810110A21A0F81611B2
:1034A000B0F81211B0F81201401C83B2A548A0F880
:1034B00012314C3042544C3890F811015040A1491F
:1034C00081F81101E5E005219E4880F810110A21DC
:1034D000A0F81611B0F81211B0F81201401C83B216
:1034E0009848A0F812314C3042544C3890F81101F1
:1034F0005040944981F81101CBE00621914880F8B1
:1035000010110A21A0F81611B0F81211B0F812012A
:10351000401C83B28B48A0F812314C3042544C38D6
:1035200090F811015040874981F81101B1E0AFE0F6
:103530000721844880F810110A21A0F81611B0F86C
:103540001211B0F81201401C83B27E48A0F812316B
:103550004C3042544C3890F811015040794981F870
:10356000110196E00821774880F810110A21A0F88F
:103570001611B0F81211B0F81201401C83B2714854
:10358000A0F812314C3042544C3890F811015040A0
:103590006C4981F811017CE009216A4880F810111A
:1035A0000A21A0F81611B0F81211B0F81201401C4F
:1035B00083B26448A0F812314C3042544C3890F831
:1035C000110150405F4981F8110162E00A215D4814
:1035D00080F81011A0F81611B0F81211B0F812010D
:1035E000401C83B25748A0F812314C3042544C383A
:1035F00090F811015040534981F8110149E00B2125
:10360000504880F810110A21A0F81611B0F81211D4
:10361000B0F81201401C83B24A48A0F812314C3075
:1036200042544C3890F811015040464981F811013C
:103630002FE0FFE7434890F81101904223D1002189
:103640004048A0F8141111E03E48B0F814114C3075
:10365000415C4C38B0F81431CC30C154CC38B0F89F
:103660001401401C81B23748A0F814113548B0F855
:1036700014010828E8DB0121324880F818110021E4
:10368000A0F8161103E000212E48A0F8161100E062
:1036900000BF00BF00BD08B52DA000F0B1FBFFF7D3
:1036A0007CFE28494860FFF778FE264988600122A1
:1036B00000210846FFF78BFE40E022498868FFF7AB
:1036C0005DFEB0F5FA7F08D9012200210846FFF718
:1036D0007EFEFFF762FE1B4988600021194880F8D2
:1036E0001811B823D8228821602002F012FF1CA0F4
:1036F0004EF67D734FF61F0294210090782003F060
:103700002BF8B8234FF4C07288214FF4847002F074
:1037100000FF15A04EF67D734FF61F029421009016
:103720004FF4907003F018F8064890F81F0120F04D
:103730000100401C034981F81F0100E0BDE700BF04
:1037400008BD0000E0410020005C26050038014073
:10375000C3E2C5F6D7B2B0E5B9A4D7B00000000007
:103760004938B2E2CAD400004939B2E2CAD40000F2
:10377000704700BFFDF755F8FFF7FAFF3220FFF75B
:10378000FBF8F7E7FFF787FF00BFFDF74AF801F006
:10379000BEFDFAE710B54FF44070FCF71FFE10BDF8
:1037A00010B50120FDF7D9F82120FDF794F8044663
:1037B0000CB9002010BD4FF4E0110020FDF7D0F847
:1037C0000120FDF7D9F800BF3920FDF784F8002863
:1037D000FAD03920FDF77FF804460220FDF7CFF834
:1037E0000020FDF7DAF80020FDF7E0F80020FDF7F3
:1037F000E6F80120DEE710B5FDF72AF84FF4803037
:10380000FDF746F8FDF783F8E449087008460078AC
:10381000D8B94FF4E0114FF48030FDF7A1F8012042
:10382000FDF7AAF800BF3920FDF755F80028FAD0B7
:103830000220FDF7A4F80020FDF7AFF84FF48060F8
:10384000FDF7B4F80020FDF7BAF810BD08B5012166
:103850000846FDF75AF90121D148FDF770F9012119
:1038600045F67D00FDF75EF90121CE48FCF753FFD8
:103870004FF6FF70ADF8000010208DF80300032014
:103880008DF802006946C848FCF776FE6946C748CD
:10389000FCF772FE6946C648FCF76EFE6946C548ED
:1038A000FCF76AFE0120ADF8000010208DF803003F
:1038B00003208DF802006946BB48FCF75DFE01203D
:1038C000BD4908604FF40060ADF800004FF04800BB
:1038D0008DF803004FF003008DF802006946B548EB
:1038E000FCF74AFE08BD10B545F25550FCF790FFB5
:1038F0000620FCF790FF40F6FF70FCF78FFFFCF707
:1039000095FF10BD30B5AD4800684FF47A72B0FB3A
:10391000F2F1B1F1807F01D301201BE021F07F4063
:10392000401E4FF0E022506150170F22002806DAA7
:103930001301A34C00F00F052D1F635502E0130186
:10394000A04C235400BF00204FF0E02290610720DC
:103950001061002008B100BFFEE730BD1FB5632035
:10396000ADF8080040F2CF20ADF804000020ADF81B
:103970000A00ADF8060001A94FF08040FDF794FB66
:103980001C208DF8000002208DF8010000208DF829
:10399000020001208DF803006846FCF724FD012297
:1039A00011469007FDF7F7FE01218807FDF7D8FEC5
:1039B0001FBD1FB50920ADF8080041F61F40ADF846
:1039C00004000020ADF80A00ADF8060001A97E4809
:1039D000FDF76AFB1D208DF8000003208DF8010023
:1039E00000208DF8020001208DF803006846FCF7E6
:1039F000FAFC012211467448FDF7CDFE0121724800
:103A0000FDF7AEFE1FBD704700B587B04FF40070E4
:103A1000ADF8180003208DF81A0018208DF81B004F
:103A200006A96148FCF7A8FD4FF48060ADF81800C6
:103A300004208DF81B0006A95B48FCF79DFD4FF4A0
:103A4000E13002900020ADF80C00ADF80E00ADF8AA
:103A50001000ADF814000C20ADF8120002A95B486C
:103A6000FEF79FF925208DF8040001208DF8050050
:103A700000208DF8060001208DF8070001A8FCF752
:103A8000B2FC012240F225515048FEF722FA0121F2
:103A90004E48FEF712FA07B000BD10B5FFF77AFEE8
:103AA000FFF7D4FEFFF71FFFFFF7ADFFFFF756FF4D
:103AB000FFF7AAFF482000F04DF910BD10B5002017
:103AC0004349086048608860402141480C3004F058
:103AD0008AFC40213E484C3004F085FC40213C48A3
:103AE0008C3004F080FC40213948CC3004F07BFC61
:103AF00000213748A0F80C11A0F80E11012180F820
:103B00001011002180F81111A0F81211A0F8141161
:103B1000A0F8161180F8181190F81A0120F0010091
:103B20002B4981F81A01084690F81A0120F002008A
:103B300081F81A010021264880F81B110020244931
:103B400081F81C010021224880F81D1180F81E1107
:103B500090F81F0120F001011D4880F81F1190F816
:103B60001F0120F002011A4880F81F11002180F87F
:103B7000201180F8211180F82211A0F82411A0F85A
:103B8000261180F8281110BD10B5FFF786FF03F04D
:103B9000BDFA04F079FBFFF791FF10BD8000002013
:103BA00017081E000002300000080140000C014010
:103BB000001001400014014080012142000000205B
:103BC00018ED00E000E400E000040040003801408F
:103BD000E0410020FFF7D8FFFFF75DFD05E0FCF7AF
:103BE00020FE04F0B5FB01F092FBF8E770471CB52E
:103BF0000A4803210023C022CDE9001008A10B4888
:103C0000FEF795FC0A4801210023C022CDE90010EF
:103C100008A10B48FEF78BFC1CBD704788000020F4
:103C200054696D65725461736B000000733700084E
:103C30008C000020446973706C61795461736B006F
:103C400085370008704700BFFEE700BFFEE700BFF2
:103C5000FEE700BFFEE7704710B501218807FEF7B9
:103C600048F860B138480068401C37490860084689
:103C700000683649884202D3002033490860012198
:103C80008807FEF747F810BD10B540F225513048BF
:103C9000FEF704FA58B12E48FEF780F9C4B2204668
:103CA000FFF7C2FB40F225512948FEF721FA40F206
:103CB00026612748FEF7F2F9002844D02248B0F8E0
:103CC0000C01002828DD2048B0F80E21B0F80E01C4
:103CD000401C83B21C48A0F80E310C30815C1C489B
:103CE000FEF758F91848B0F80E11B0F80C018142EF
:103CF00024D100211448A0F80C11A0F80E110022C4
:103D000040F226611248FEF7E4F8012240F2255104
:103D10000F48FEF7DEF811E000210B48A0F80C1167
:103D2000A0F80E11002240F226610948FEF7D1F8F2
:103D3000012240F225510648FEF7CBF840F22661F9
:103D40000348FEF7D5F910BDE0410020005C2605D0
:103D5000003801404FF0E021096921F004014FF0E3
:103D6000E0221161C21700EB5272D210224B1A707E
:103D70001946097801EB4102C2EBC1114FF6FF72FF
:103D800002EAC1011D4A1180704701461B4A128890
:103D90004A434FF0E0235A6100229A6101221A61DE
:103DA00000BF4FF0E022106910F0010F02D010F4B4
:103DB000803FF6D000224FF0E0231A619A617047ED
:103DC00001460D4A12784A434FF0E0235A6100221F
:103DD0009A6101221A6100BF4FF0E022106910F0D1
:103DE000010F02D010F4803FF6D000224FF0E02304
:103DF0001A619A6170470000920000209400002030
:103E00003EB504464EF67D7003F0D7F81F200090B3
:103E1000FB48028814230021084601F0BDFC1F2046
:103E20000090F748438802884088143881B2002007
:103E300001F0B2FC4FF6FF70F2490880012010211A
:103E40001F234FF6FF72CDE90041029002210020AE
:103E500002F047FA01201021EBA2CDE900210290E7
:103E6000E7484088123881B21F234FF6FF720020C6
:103E700002F037FA3EBD2DE9F8430746884614465E
:103E80001D46089EB8F5877F24DC012F71D116BB33
:103E9000E1A04EF67D73002241460090542002F0CE
:103EA0009EFB4EF67D73002241466C20009402F08A
:103EB0005CFEDAA04EF67D730022414600909C2005
:103EC00002F08DFB4EF67D7300224146B420009532
:103ED00002F04BFE23E1012E24D1CFA04EF67D73DC
:103EE0004FF4784241460090542002F078FB4EF6A1
:103EF0007D734FF4784241466C20009402F035FE09
:103F0000C6A04EF67D730022414600909C2002F030
:103F100066FB4EF67D7300224146B420009502F008
:103F200024FEFCE0022E25D1BBA04EF67D730022BC
:103F300041460090542002F052FB4EF67D73002261
:103F400041466C20009402F010FEB4A04EF67D7342
:103F50004FF47842414600909C2002F040FB4EF620
:103F60007D734FF478424146B420009502F0FDFD88
:103F7000D5E028E0032EADD1A7A04EF67D734FF417
:103F8000784241460090542002F029FB4EF67D73A2
:103F90004FF4784241466C20009402F0E6FD9FA069
:103FA0004EF67D734FF47842414600909C2002F01B
:103FB00016FB4EF67D734FF478424146B4200095CF
:103FC00002F0D3FDABE0022F84D136BB92A04EF6B7
:103FD0007D730022414600904FF4A37002F0FFFA77
:103FE0004EF67D73002241464FF4AF70009402F00C
:103FF000BCFD8AA04EF67D730022414600904FF42E
:10400000C77002F0ECFA4EF67D73002241464FF481
:10401000D370009502F0A9FD81E0012E28D17EA089
:104020004EF67D734FF47842414600904FF4A370F2
:1040300002F0D5FA4EF67D734FF4784241464FF4C4
:10404000AF70009402F091FD74A04EF67D730022D3
:10405000414600904FF4C77002F0C1FA4EF67D73EE
:10406000002241464FF4D370009502F07EFD56E0E9
:10407000022E28D168A04EF67D73002241460090A2
:104080004FF4A37002F0ABFA4EF67D730022414666
:104090004FF4AF70009402F068FD60A04EF67D739F
:1040A0004FF47842414600904FF4C77002F097FAFF
:1040B0004EF67D734FF4784241464FF4D37000952D
:1040C00002F053FD2BE0032E29D153A04EF67D7351
:1040D0004FF47842414600904FF4A37002F07FFA0B
:1040E0004EF67D734FF4784241464FF4AF70009422
:1040F00002F03BFD49A04EF67D734FF478424146F5
:1041000000904FF4C77002F06AFA4EF67D734FF4D8
:10411000784241464FF4D370009502F026FDBDE889
:10412000F883F8B506460D460A2D67DA1BD2DFE89C
:1041300005F00507090B0D0F11131517322413E0B5
:104140004A2411E062240FE07A240DE092240BE06F
:10415000AA2409E0C22407E0DA2405E0F22403E0FF
:104160004FF4857400E000BF00BFB01E192846D28E
:10417000DFE800F00D18232E396E79848F9AA5B0F0
:10418000BBC6D1DCF0FBEDECEBEAE9E8E70024A0EC
:104190004EF67D734FF4784221460090F22002F0F3
:1041A000DBFA3BE121A04EF67D734FF478422146C5
:1041B0000090F22002F0D0FA30E11FA04EF67D739D
:1041C0004FF4784221460090F22002F0C5FA25E132
:1041D0001BA04EF67D734FF4784221460090F220EA
:1041E00002F0BAFA1AE118A04EF67D734FF4784245
:1041F00021460090F22002F0AFFA0FE10FE10CE14E
:104200000C4300209C000020C7EBB0B4CCE1CABE38
:10421000B2D9D7F700000000D4B63A00BDFC3A008E
:10422000D7F3D2FDB5BCB9A9B5E70000D3D2D2FD12
:10423000B5BCB9A9B5E70000C9CFD2FDB5BC000037
:10424000C7B0D2FDB5BC0000D7F3C3E20000000048
:10425000FEA04EF67D734FF4784221460090F22086
:1042600002F07AFADAE0FBA04EF67D734FF4784262
:1042700021460090F22002F06FFACFE0F7A04EF650
:104280007D734FF4784221460090F22002F064FAE8
:10429000C4E0F4A04EF67D734FF4784221460090BE
:1042A000F22002F059FAB9E0F0A04EF67D734FF417
:1042B000784221460090F22002F04EFAAEE0EDA0E6
:1042C0004EF67D734FF4784221460090F22002F0C2
:1042D00043FAA3E0E9A04EF67D734FF478422146FD
:1042E0000090F22002F038FA98E0E6A04EF67D73D6
:1042F0004FF4784221460090F22002F02DFA8DE032
:10430000E2A04EF67D734FF4784221460090F220F1
:1043100002F022FA82E0DFA04EF67D734FF478427D
:1043200021460090F22002F017FA77E0DBA04EF66B
:104330007D734FF4784221460090F22002F00CFA8F
:104340006CE05FE053E047E03BE02FE023E017E064
:104350000BE0FFE7D3A04EF67D734FF47842214681
:104360000090F22002F0F8F958E0D0A04EF67D73EC
:104370004FF4784221460090F22002F0EDF94DE032
:10438000CCA04EF67D734FF4784221460090F22087
:1043900002F0E2F942E0C9A04EF67D734FF4784294
:1043A00021460090F22002F0D7F937E0C5A04EF682
:1043B0007D734FF4784221460090F22002F0CCF950
:1043C0002CE0C2A04EF67D734FF478422146009057
:1043D000F22002F0C1F921E0BEA04EF67D734FF449
:1043E000784221460090F22002F0B6F916E0BCA017
:1043F0004EF67D734FF4784221460090F22002F091
:10440000ABF90BE0B9A04EF67D734FF4784221462C
:104410000090F22002F0A0F900E000BF00BFF8BD5C
:104420000FB583B004980E2874D00ADC80F06B8737
:10443000DFE800F098252F629DD0FDFCFBFAF9F82B
:10444000F7F6152867D00BDCA0F10F000628EDD297
:10445000DFE810F05F04B8040C0565059D05D10583
:1044600019287CD006DC16287AD0172879D018288D
:1044700078D1F7E31A2876D0FE28F9D1F3E39EA08D
:104480004EF67D73002232210090104602F064F94E
:10449000E7E3059801280AD1AFF27C204EF67D7340
:1044A000002232210090104602F056F91AE0AFF2D5
:1044B00090204EF67D734FF4784232210090002018
:1044C00002F04AF98D4890F822010146029002203C
:1044D000FFF727FE894890F82201401CC1B28748A7
:1044E00080F8221184A04EF67D7300224A210090AC
:1044F000104602F031F9CBE7059801280CD1AFF254
:10450000D4204EF67D7300224A210090104602F01E
:1045100023F91CE0A8E3FBE3AFF2F0204EF67D7335
:104520004FF478424A210090002002F015F97348B8
:1045300090F82201014602900320FFF7F2FD6F4838
:1045400090F82201401CC1B26C4880F822116AA088
:104550004EF67D73002262210090104604E0EEE3E7
:10456000EEE3EEE3EEE3EEE302F0F6F890E7059813
:1045700001280AD1AFF240304EF67D73002262214D
:104580000090104602F0E8F81AE0AFF254304EF610
:104590007D734FF4784262210090002002F0DCF835
:1045A000564890F82201014602900420FFF7B9FD19
:1045B000524890F82201401CC1B2504880F82211A4
:1045C0004DA04EF67D7300227A210090104602F035
:1045D000C3F85DE7059801280AD1AFF29C304EF68A
:1045E0007D7300227A210090104602F0B5F823E096
:1045F000AFF2B4304EF67D734FF478427A210090DA
:10460000002002F0A9F83D4890F8220101460290EE
:104610000520FFF786FD394890F82201401C07E08D
:10462000CCE274E211E2BBE166E111E1BCE067E0DB
:10463000C1B2324880F822112FA04EF67D730022BD
:1046400092210090104602F087F821E7D3D2C3E20E
:1046500000000000D6D0C3E231000000D6D0C3E293
:1046600032000000D6D0C3E233000000D6D0C3E24F
:1046700034000000D6D0C3E235000000D6D0C3E23B
:1046800036000000D6D0C3E237000000D6D0C3E227
:1046900038000000D6D0C3E239000000D6D0C3E213
:1046A0003130000044433556000000005643433388
:1046B00056330000564343315638000056434331C9
:1046C0005633000044433356330000005653454CE4
:1046D000345636004353495F4156444400000000BD
:1046E0004353495F4456444400000000544F46B3CE
:1046F000F5CABCBBAF0000002E2E2E00E04100200A
:104700000598012812D1AFF2C0404EF67D73002209
:1047100092210090104602F01FF800200090962190
:104720000120089B069AFFF7A6FB32E0AFF2E840B3
:104730004EF67D734FF4784292210090002002F0F3
:104740000BF80998009096210120089B069AFFF724
:1047500092FBFA4890F82201014602900620FFF7EA
:10476000E0FC09980090F54890F8220100EB400029
:10477000C0003630029001460220089B069AFFF7DF
:104780007AFBEE4890F82201401CC1B2EB4880F859
:104790002211AFF29C004EF67D730022AA210090F8
:1047A000104601F0D9FF73E60598012812D1AFF247
:1047B00064104EF67D730022AA210090104601F08D
:1047C000CBFF00200090AE210120089B069AFFF746
:1047D00052FB32E0AFF28C104EF67D734FF478420C
:1047E000AA210090002001F0B7FF09980090AE21A7
:1047F0000120089B069AFFF73EFBD04890F8220163
:10480000014602900720FFF78CFC09980090CB48E6
:1048100090F8220100EB4000C000363002900146C3
:104820000220089B069AFFF726FBC44890F8220155
:10483000401CC1B2C14880F82211AFF244104EF6BC
:104840007D730022C2210090104601F085FF1FE613
:104850000598012812D1AFF204204EF67D73002294
:10486000C2210090104601F077FF00200090C62181
:104870000120089B069AFFF7FEFA32E0AFF22C20E7
:104880004EF67D734FF47842C2210090002001F073
:1048900063FF09980090C6210120089B069AFFF744
:1048A000EAFAA64890F82201014602900820FFF794
:1048B00038FC09980090A14890F8220100EB4000D4
:1048C000C0003630029001460220089B069AFFF78E
:1048D000D2FA9A4890F82201401CC1B2974880F859
:1048E0002211AFF2EC104EF67D730022DA21009017
:1048F000104601F031FFCBE50598012812D1AFF247
:10490000A4204EF67D730022DA210090104601F0BB
:1049100023FF00200090DE210120089B069AFFF76C
:10492000AAFA32E0AFF2CC204EF67D734FF4784213
:10493000DA210090002001F00FFF09980090DE219D
:104940000120089B069AFFF796FA7C4890F822010E
:10495000014602900920FFF7E4FB09980090774890
:1049600090F8220100EB4000C00036300290014672
:104970000220089B069AFFF77EFA704890F8220101
:10498000401CC1B26D4880F82211AFF294204EF65F
:104990007D730022F2210090104601F0DDFE77E5E4
:1049A0000598012812D1AFF244304EF67D730022F3
:1049B000F2210090104601F0CFFE00200090F62179
:1049C0000120089B069AFFF756FA32E0AFF26C30EE
:1049D0004EF67D734FF47842F2210090002001F0F2
:1049E000BBFE09980090F6210120089B069AFFF76C
:1049F00042FA524890F82201014602900A20FFF73D
:104A000090FB099800904D4890F8220100EB40007F
:104A1000C0003630029001460220089B069AFFF73C
:104A20002AFA464890F82201401CC1B2434880F857
:104A30002211AFF23C304EF67D7300224FF48571A7
:104A40000090104601F088FE22E50598012814D157
:104A5000AFF2E8304EF67D7300224FF4857100907E
:104A6000104601F079FE002000904FF4877101207C
:104A7000089B069AFFF7FFF934E0AFF210404EF6BC
:104A80007D734FF478424FF485710090002001F05F
:104A900063FE099800904FF487710120089B069AE5
:104AA000FFF7E9F9254890F82201014602900B2012
:104AB000FFF737FB09980090204890F8220100EB9F
:104AC0004000C0003630029001460220089B069A42
:104AD000FFF7D1F9194890F82201401CC1B21748DC
:104AE00080F822114EF67D7040F22713EB22292127
:104AF0000090002000F050FEAFF204404EF67D73AF
:104B0000002232210090104601F026FEFCE30598B9
:104B1000012815D1AFF2A4404EF67D730022322158
:104B20000090104601F018FE002000903621012070
:104B3000089B069AFFF79FF935E00000E04100204E
:104B4000AFF2D0404EF67D734FF4784232210090A0
:104B5000002001F001FE0998009036210120089BF9
:104B6000069AFFF788F9FE4890F822010146029064
:104B70000C20FFF7D6FA09980090F94890F8220126
:104B800000EB4000C0003630029001460220089B36
:104B9000069AFFF770F9F24890F82201401CC1B262
:104BA000EF4880F82211AFF2B0404EF67D7300223C
:104BB0004A210090104601F0CFFDA5E30598012899
:104BC00012D1AFF248504EF67D7300224A21009078
:104BD000104601F0C1FD002000904E210120089BED
:104BE000069AFFF748F932E0AFF270504EF67D7347
:104BF0004FF478424A210090002001F0ADFD099861
:104C000000904E210120089B069AFFF734F9D44802
:104C100090F82201014602900D20FFF782FA0998D0
:104C20000090CF4890F8220100EB4000C0003630E1
:104C3000029001460220089B069AFFF71CF9C8481B
:104C400090F82201401CC1B2C54880F82211AFF291
:104C500058504EF67D73002262210090104601F0FC
:104C60007BFD51E3A4E235E30598012812D1AFF2B0
:104C7000EC504EF67D73002262210090104601F048
:104C80006BFD0020009066210120089B069AFFF72B
:104C9000F2F832E0AFF214604EF67D734FF47842D2
:104CA00062210090002001F057FD099800906621D4
:104CB0000120089B069AFFF7DEF8A94890F8220128
:104CC000014602900E20FFF72CFA09980090A448A4
:104CD00090F8220100EB4000C000363002900146FF
:104CE0000220089B069AFFF7C6F89D4890F822011B
:104CF000401CC1B29A4880F82211AFF204604EF60F
:104D00007D7300227A210090104601F025FDFBE220
:104D1000A6E10598012817D1AFF290604EF67D7399
:104D200000227A210090104601F016FD002000902C
:104D30007E210120089B069AFFF79DF837E06BE281
:104D4000CEE101E2DFE29BE2AFF2C0604EF67D739E
:104D50004FF478427A210090002001F0FDFC099880
:104D600000907E210120089B069AFFF784F87C487A
:104D700090F82201014602900F20FFF7D2F909981E
:104D80000090774890F8220100EB4000C0003630D8
:104D9000029001460220089B069AFFF76CF87048C3
:104DA00090F82201401CC1B26D4880F82211AFF288
:104DB000B8604EF67D73002292210090104601F0FB
:104DC000CBFCA1E20598012812D1AFF238704EF663
:104DD0007D73002292210090104601F0BDFC00205E
:104DE000009096210120089B069AFFF744F832E0D4
:104DF000AFF260704EF67D734FF4784292210090CE
:104E0000002001F0A9FC0998009096210120089B40
:104E1000069AFFF730F8524890F8220101460290B6
:104E20001020FFF77EF9099800904D4890F8220174
:104E300000EB4000C0003630029001460220089B83
:104E4000069AFFF718F8464890F82201401CC1B2B4
:104E5000434880F82211AFF260704EF67D73002255
:104E6000AA210090104601F077FC4DE20598012838
:104E700012D1AFF2D8704EF67D730022AA210090B5
:104E8000104601F069FC00200090AE210120089B33
:104E9000069AFEF7F0FF32E0AFF600004EF67D73A3
:104EA0004FF47842AA210090002001F055FC0998A7
:104EB0000090AE210120089B069AFEF7DCFF2848EF
:104EC00090F82201014602901120FFF72AF9099873
:104ED0000090234890F8220100EB4000C0003630DB
:104EE000029001460220089B069AFEF7C4FF1C4868
:104EF00090F82201401CC1B2194880F822111848CC
:104F000090F82101022809D1AFF614004EF67D7306
:104F10000022C2210090104601F01EFCF4E1059829
:104F200001280AD1AFF684004EF67D730022C2211B
:104F30000090104601F010FC1EE0AFF698004EF60F
:104F40007D734FF47842C2210090002001F004FCF0
:104F5000034890F8220101460290122002E000006E
:104F6000E0410020FFF7DDF8FE4890F82201401CE8
:104F7000C1B2FC4880F82211AFF684004EF67D7372
:104F80000022DA210090104601F0E6FBBCE1059812
:104F900001280AD1AFF6EC004EF67D730022DA212B
:104FA0000090104601F0D8FB1AE0AFF600104EF664
:104FB0007D734FF47842DA210090002001F0CCFBA1
:104FC000E84890F82201014602901320FFF7A9F863
:104FD000E44890F82201401CC1B2E24880F8221156
:104FE000AFF6EC004EF67D730022F22100901046E1
:104FF00001F0B2FB88E1059801280AD1AFF64C1008
:105000004EF67D730022F2210090104601F0A4FBC1
:105010001AE0AFF660104EF67D734FF47842F2213D
:105020000090002001F098FBCE4890F82201014644
:1050300002901420FFF775F8CA4890F82201401C2E
:10504000C1B2C84880F82211AFF654104EF67D73F5
:1050500000224FF485710090104601F07DFB53E172
:10506000059801280BD1AFF6AC104EF67D730022E7
:105070004FF485710090104601F06EFB1BE0AFF617
:10508000C4104EF67D734FF478424FF48571009052
:10509000002001F061FBB34890F822010146029024
:1050A0001520FFF73EF8AF4890F82201401CC1B22E
:1050B000AC4880F822114EF67D7040F22713EB22A7
:1050C00029210090002000F067FBAFF6D4104EF6C7
:1050D0007D73002232210090104601F03DFB13E168
:1050E000059801280AD1AFF624204EF67D730022E0
:1050F00032210090104601F02FFB1AE0AFF63C2061
:105100004EF67D734FF4784232210090002001F07A
:1051100023FB944890F82201014602901620FFF7E5
:1051200000F8904890F82201401CC1B28D4880F8E8
:105130002211AFF63C204EF67D7300224A210090EA
:10514000104601F009FBDFE0059801280AD1AFF60F
:1051500084204EF67D7300224A210090104601F013
:10516000FBFA1AE0AFF69C204EF67D734FF47842BE
:105170004A210090002001F0EFFA7A4890F82201CD
:10518000014602901720FEF7CCFF764890F82201E6
:10519000401CC1B2734880F82211AFF6A4204EF62D
:1051A0007D73002262210090104601F0D5FAABE039
:1051B000059801280AD1AFF6E4204EF67D7300224F
:1051C00062210090104601F0C7FA1AE0AFF6FC2009
:1051D0004EF67D734FF4784262210090002001F07A
:1051E000BBFA604890F82201014602901820FEF7B1
:1051F00098FF5C4890F82201401CC1B2594880F8E1
:105200002211AFF60C304EF67D7300227A21009009
:10521000104601F0A1FA77E0059801280AD1AFF60F
:1052200040304EF67D7300227A210090104601F046
:1052300093FA1AE0AFF658304EF67D734FF4784289
:105240007A210090002001F087FA464890F8220168
:10525000014602901920FEF764FF424890F82201AF
:10526000401CC1B23F4880F82211AFF674304EF6B0
:105270007D73002292210090104601F06DFA43E008
:10528000059801280AD1AFF69C304EF67D730022B6
:1052900092210090104601F05FFA1AE0AFF6B430A8
:1052A0004EF67D734FF4784292210090002001F079
:1052B00053FA2C4890F82201014602901A20FEF77A
:1052C00030FF284890F82201401CC1B2254880F8E0
:1052D000221119E00598012814D14EF67D7040F294
:1052E0002B1340F2DF1214210090002002F030F85E
:1052F0001D484EF67D734FF4FC624E2100907420E1
:1053000001F093FC00E000BF00BF07B000BD1FB577
:10531000144890F8210100287ED1124890F81A0113
:10532000C0F3400030B30F4890F81A0120F002009B
:105330000C4981F81A010D480088602810DB0B48E1
:105340000088D8280CDC0A480088882808DB084830
:105350000088B82804DC012211460220FEF737F845
:10536000024808E0E041002096000020D400002020
:10537000D600002015E00088B0F5847F11DBF048EE
:105380000088B0F5C07F0CDCEE480088882808DB78
:10539000EC480088B82804DC012202210846FEF708
:1053A00016F8E94890F8180110F0010F7ED000219E
:1053B000E54880F8181190F8CC0002284BD1E2485B
:1053C00090F8CD00012846D1DF4890F8CE000128A2
:1053D00041D1DD4880F81811012180F82111DBA0AE
:1053E000FEF70EFD4FF6E0700090DC48028828239F
:1053F0001421002000F0D0F901201021D8A24FF68E
:10540000E073CDE90032CDE9021000231622F0212D
:10541000184600F084FF00E070E001201021D2A2C5
:105420004FF6E073CDE90032CDE9021000231622D9
:105430004FF4F071F02000F072FF002040F22B13C7
:10544000F02229210090104600F0BBFF0122042128
:105450000220FDF7BCFFBC4890F8CC00022825D103
:10546000B94890F8CD000228F9D1B74890F8CE009D
:105470000128F4D10021B44880F81811022180F8E5
:105480002111BBA0FEF7BCFC4FF6E0700090B348C2
:10549000028828231421002000F07EF90120102129
:1054A000AFA24FF6E073CDE9003200E041E1CDE973
:1054B000021000231622F021184600F030FF0120D0
:1054C0001021A9A24FF6E073CDE90032CDE9021018
:1054D000002316224FF4F071F02000F020FF00208E
:1054E00040F22B13F02229210090104600F069FFB2
:1054F000012205210220FDF76AFF1AE1924890F887
:10550000210101287DD1904890F8180110F0010F79
:10551000F3D000218C4880F8181190F8CC000228B4
:1055200058D1894890F8CD00032853D1864890F887
:10553000CE0001284ED1844880F822114FF6E07049
:1055400000908648028828231421002000F024F9C6
:105550004EF67D7040F22B1340F2DF1228210090AE
:10556000002001F0F5FE012010217DA24FF6E0732E
:10557000CDE90032CDE9021000231622F0211846B1
:1055800000F0CDFE0120102177A24FF6E073CDE9A7
:105590000032CDE90210002316224FF4F071F02002
:1055A00000F0BDFE002040F22B13F02229210090D4
:1055B000104600F006FFAFF6C0604EF67D73002285
:1055C00032210090104601F0C7F801220321022089
:1055D000FDF7FDFE5C4890F8CC0001288DD15A48BB
:1055E00090F8D01090F8CF0041EA00215648A0F87A
:1055F000241190F8D21090F8D10041EA00215248CD
:1056000000E01EE0A0F8261190F8D31080F82811D1
:1056100090F828014C49B1F82611CDE900104A480C
:10562000B0F8243190F8CE2090F8CD100120FEF78C
:10563000F7FE454890F8CD1001221046FDF7C7FE51
:1056400077E0414890F82101022872D13E4890F855
:10565000180110F0010F6CD000213B4880F81811A0
:1056600090F8CC00022830D1374890F8CD000328BC
:105670002BD1354890F8CE00012826D1324880F849
:1056800022114EF67D7040F22713EB222C21009060
:10569000002001F05DFE4EF67D7040F2271340F2CF
:1056A000DB122C210090F22001F052FEAFF6B87010
:1056B0004EF67D73002232210090104601F04CF826
:1056C000012203210220FDF782FE1F4890F8CC0042
:1056D00001282ED11C4890F8D01090F8CF0041EA54
:1056E00000211948A0F8241190F8D21090F8D100A8
:1056F00041EA00211448A0F8261190F8D31080F850
:10570000281190F828011049B1F82611CDE90010B0
:105710000D48B0F8243190F8CE2090F8CD1001203B
:10572000FEF77EFE084890F8CD1001221046FDF7E6
:105730004EFE4EF67D720021084601F0FDFD1FBDB4
:10574000D4000020D6000020E04100204938C3E208
:10575000C5F6D7B2B0E5B9A4D7B000000C4300201D
:10576000BCECB2E2C0B80000B1A8B4EDC0B8000013
:105770004939C3E2C5F6D7B2B0E5B9A4D7B0000045
:1057800070B505460E4614463146284601F0FFFB2B
:10579000204601F0BCFB70BD2DE9F05F04460D46CC
:1057A00016461F46301B401C1FFA80FA781B401C0F
:1057B0001FFA80FB3B4632462946204601F0BDFBDE
:1057C0004FF000080FE04FF0000906E00A9801F0E2
:1057D0009EFB09F101001FFA80F9D145F6DB08F1C3
:1057E00001001FFA80F8D845EDDBFE484088401ED6
:1057F00083B2FC480088401E82B20021084601F0B6
:105800009CFBBDE8F09F2DE9FF4F85B081468A469D
:105810000020049003900798A0EB09050898A0EBDE
:105820000A06CDF80890CDF804A0002D01DD01276F
:1058300005E00DB9002702E04FF0FF376D42002E62
:1058400002DD4FF0010806E016B94FF0000802E053
:105850004FF0FF387642B54201DD2C4600E0344679
:105860004FF0000B21E0019A91B2029A90B201F040
:1058700098FB0498284404900398304403900498BB
:10588000A04205DD0498001B049002983844029061
:105890000398A04205DD0398001B03900198404443
:1058A00001900BF101001FFA80FB601C8345DADDDB
:1058B00009B0BDE8F08F2DE9F04104460D461646CB
:1058C0001F462B46324629462046FFF79CFF3B46A3
:1058D000224629462046FFF796FF3B463246394688
:1058E0002046FFF790FF3B46324629463046FFF7F9
:1058F0008AFFBDE8F081F8B504460D4616461F46FE
:10590000B94800883B463246294600902046FFF7BA
:1059100043FFF8BD2DE9F04104460D4616461F46EB
:10592000DDF81880EA1991B2A21990B24246FFF749
:1059300027FFEA1991B2A21B90B24246FFF720FF5F
:10594000EA1B91B2A21990B24246FFF719FFEA1B77
:1059500091B2A21B90B24246FFF712FFAA1991B270
:10596000E21990B24246FFF70BFFAA1991B2E21B6F
:1059700090B24246FFF704FFAA1B91B2E21990B21F
:105980004246FFF7FDFEAA1B91B2E21B90B24246CF
:10599000FFF7F6FEBDE8F0812DE9FF4F81B08246AA
:1059A00017469846DDF838B0002445464FEA4800CF
:1059B000C0F10306BBF1000F1FD01BE0A14608E0B9
:1059C0004B462246009750460299FFF7A3FF09F184
:1059D0000109A945F4DD002E04DA042000FB04606F
:1059E000861D06E0601B042101FB006000F10A0631
:1059F0006D1E641CAC42E1DD18E015E02B4622462A
:105A0000009750460299FFF785FF002E04DA042024
:105A100000FB0460861D06E0601B042101FB0060A2
:105A200000F10A066D1E641CAC42E7DD05B0BDE85E
:105A3000F08F2DE9F04704460D4616461F46DDE976
:105A400008893B46324629462046FFF7DCFE4B4696
:105A5000424639463046FFF7D6FE2B462246494697
:105A60004046FFF7D0FEBDE8F08702880B88038030
:105A70000A8070472DE9FF4F85B000260027BDF84A
:105A80001800BDF82010884207DD08A906A8FFF716
:105A9000ECFF07A905A8FFF7E8FFBDF82000BDF857
:105AA0004C10884207DD08A913A8FFF7DEFF07A9FD
:105AB00012A8FFF7DAFFBDF81800BDF820108842E1
:105AC00007DD08A906A8FFF7D0FF07A905A8FFF77B
:105AD000CCFFBDF81800BDF84C10884238D1BDF895
